{
	"contracts/BlockchainPassport.sol": {
		"BlockchainPassport": {
			"abi": [
				{
					"inputs": [],
					"stateMutability": "nonpayable",
					"type": "constructor"
				},
				{
					"anonymous": false,
					"inputs": [
						{
							"indexed": false,
							"internalType": "string",
							"name": "passportID",
							"type": "string"
						},
						{
							"indexed": false,
							"internalType": "string",
							"name": "holderName",
							"type": "string"
						}
					],
					"name": "PassportIssued",
					"type": "event"
				},
				{
					"anonymous": false,
					"inputs": [
						{
							"indexed": false,
							"internalType": "string",
							"name": "passportID",
							"type": "string"
						},
						{
							"indexed": false,
							"internalType": "bool",
							"name": "newStatus",
							"type": "bool"
						}
					],
					"name": "PassportStatusUpdated",
					"type": "event"
				},
				{
					"inputs": [],
					"name": "admin",
					"outputs": [
						{
							"internalType": "address",
							"name": "",
							"type": "address"
						}
					],
					"stateMutability": "view",
					"type": "function"
				},
				{
					"inputs": [
						{
							"internalType": "string",
							"name": "passportID",
							"type": "string"
						}
					],
					"name": "getPassport",
					"outputs": [
						{
							"internalType": "string",
							"name": "holderName",
							"type": "string"
						},
						{
							"internalType": "string",
							"name": "nationality",
							"type": "string"
						},
						{
							"internalType": "uint256",
							"name": "birthDate",
							"type": "uint256"
						},
						{
							"internalType": "uint256",
							"name": "issueDate",
							"type": "uint256"
						},
						{
							"internalType": "uint256",
							"name": "expiryDate",
							"type": "uint256"
						},
						{
							"internalType": "bool",
							"name": "isValid",
							"type": "bool"
						}
					],
					"stateMutability": "view",
					"type": "function"
				},
				{
					"inputs": [
						{
							"internalType": "string",
							"name": "passportID",
							"type": "string"
						},
						{
							"internalType": "string",
							"name": "holderName",
							"type": "string"
						},
						{
							"internalType": "string",
							"name": "nationality",
							"type": "string"
						},
						{
							"internalType": "uint256",
							"name": "birthDate",
							"type": "uint256"
						},
						{
							"internalType": "uint256",
							"name": "issueDate",
							"type": "uint256"
						},
						{
							"internalType": "uint256",
							"name": "expiryDate",
							"type": "uint256"
						},
						{
							"internalType": "bool",
							"name": "isValid",
							"type": "bool"
						}
					],
					"name": "issuePassport",
					"outputs": [],
					"stateMutability": "payable",
					"type": "function"
				},
				{
					"inputs": [
						{
							"internalType": "string",
							"name": "passportID",
							"type": "string"
						},
						{
							"internalType": "bool",
							"name": "newStatus",
							"type": "bool"
						}
					],
					"name": "updatePassportStatus",
					"outputs": [],
					"stateMutability": "payable",
					"type": "function"
				}
			],
			"devdoc": {
				"kind": "dev",
				"methods": {},
				"version": 1
			},
			"evm": {
				"assembly": "    /* \"contracts/BlockchainPassport.sol\":57:2963  contract BlockchainPassport {... */\n  mstore(0x40, 0x80)\n    /* \"contracts/BlockchainPassport.sol\":731:817  constructor() {... */\n  callvalue\n  dup1\n  iszero\n  tag_1\n  jumpi\n  0x00\n  dup1\n  revert\ntag_1:\n  pop\n    /* \"contracts/BlockchainPassport.sol\":763:773  msg.sender */\n  caller\n    /* \"contracts/BlockchainPassport.sol\":755:760  admin */\n  0x00\n  dup1\n    /* \"contracts/BlockchainPassport.sol\":755:773  admin = msg.sender */\n  0x0100\n  exp\n  dup2\n  sload\n  dup2\n  0xffffffffffffffffffffffffffffffffffffffff\n  mul\n  not\n  and\n  swap1\n  dup4\n  0xffffffffffffffffffffffffffffffffffffffff\n  and\n  mul\n  or\n  swap1\n  sstore\n  pop\n    /* \"contracts/BlockchainPassport.sol\":57:2963  contract BlockchainPassport {... */\n  dataSize(sub_0)\n  dup1\n  dataOffset(sub_0)\n  0x00\n  codecopy\n  0x00\n  return\nstop\n\nsub_0: assembly {\n        /* \"contracts/BlockchainPassport.sol\":57:2963  contract BlockchainPassport {... */\n      mstore(0x40, 0x80)\n      jumpi(tag_1, lt(calldatasize, 0x04))\n      shr(0xe0, calldataload(0x00))\n      dup1\n      0x7e1593c0\n      eq\n      tag_2\n      jumpi\n      dup1\n      0x904a6751\n      eq\n      tag_3\n      jumpi\n      dup1\n      0x9940f3fc\n      eq\n      tag_4\n      jumpi\n      dup1\n      0xf851a440\n      eq\n      tag_5\n      jumpi\n    tag_1:\n      0x00\n      dup1\n      revert\n        /* \"contracts/BlockchainPassport.sol\":2513:2961  function updatePassportStatus(string memory passportID, bool newStatus) public payable onlyIssuer {... */\n    tag_2:\n      tag_6\n      0x04\n      dup1\n      calldatasize\n      sub\n      dup2\n      add\n      swap1\n      tag_7\n      swap2\n      swap1\n      tag_8\n      jump\t// in\n    tag_7:\n      tag_9\n      jump\t// in\n    tag_6:\n      stop\n        /* \"contracts/BlockchainPassport.sol\":1829:2467  function getPassport(string memory passportID) public view returns (... */\n    tag_3:\n      callvalue\n      dup1\n      iszero\n      tag_10\n      jumpi\n      0x00\n      dup1\n      revert\n    tag_10:\n      pop\n      tag_11\n      0x04\n      dup1\n      calldatasize\n      sub\n      dup2\n      add\n      swap1\n      tag_12\n      swap2\n      swap1\n      tag_13\n      jump\t// in\n    tag_12:\n      tag_14\n      jump\t// in\n    tag_11:\n      mload(0x40)\n      tag_15\n      swap7\n      swap6\n      swap5\n      swap4\n      swap3\n      swap2\n      swap1\n      tag_16\n      jump\t// in\n    tag_15:\n      mload(0x40)\n      dup1\n      swap2\n      sub\n      swap1\n      return\n        /* \"contracts/BlockchainPassport.sol\":983:1783  function issuePassport(... */\n    tag_4:\n      tag_17\n      0x04\n      dup1\n      calldatasize\n      sub\n      dup2\n      add\n      swap1\n      tag_18\n      swap2\n      swap1\n      tag_19\n      jump\t// in\n    tag_18:\n      tag_20\n      jump\t// in\n    tag_17:\n      stop\n        /* \"contracts/BlockchainPassport.sol\":91:111  address public admin */\n    tag_5:\n      callvalue\n      dup1\n      iszero\n      tag_21\n      jumpi\n      0x00\n      dup1\n      revert\n    tag_21:\n      pop\n      tag_22\n      tag_23\n      jump\t// in\n    tag_22:\n      mload(0x40)\n      tag_24\n      swap2\n      swap1\n      tag_25\n      jump\t// in\n    tag_24:\n      mload(0x40)\n      dup1\n      swap2\n      sub\n      swap1\n      return\n        /* \"contracts/BlockchainPassport.sol\":2513:2961  function updatePassportStatus(string memory passportID, bool newStatus) public payable onlyIssuer {... */\n    tag_9:\n        /* \"contracts/BlockchainPassport.sol\":877:882  admin */\n      0x00\n      dup1\n      sload\n      swap1\n      0x0100\n      exp\n      swap1\n      div\n      0xffffffffffffffffffffffffffffffffffffffff\n      and\n        /* \"contracts/BlockchainPassport.sol\":863:882  msg.sender == admin */\n      0xffffffffffffffffffffffffffffffffffffffff\n      and\n        /* \"contracts/BlockchainPassport.sol\":863:873  msg.sender */\n      caller\n        /* \"contracts/BlockchainPassport.sol\":863:882  msg.sender == admin */\n      0xffffffffffffffffffffffffffffffffffffffff\n      and\n      eq\n        /* \"contracts/BlockchainPassport.sol\":855:925  require(msg.sender == admin, \"Only the admin can perform this action\") */\n      tag_27\n      jumpi\n      mload(0x40)\n      0x08c379a000000000000000000000000000000000000000000000000000000000\n      dup2\n      mstore\n      0x04\n      add\n      tag_28\n      swap1\n      tag_29\n      jump\t// in\n    tag_28:\n      mload(0x40)\n      dup1\n      swap2\n      sub\n      swap1\n      revert\n    tag_27:\n        /* \"contracts/BlockchainPassport.sol\":2641:2642  0 */\n      0x00\n        /* \"contracts/BlockchainPassport.sol\":2629:2638  msg.value */\n      callvalue\n        /* \"contracts/BlockchainPassport.sol\":2629:2642  msg.value > 0 */\n      gt\n        /* \"contracts/BlockchainPassport.sol\":2621:2671  require(msg.value > 0, \"Transaction requires ETH\") */\n      tag_31\n      jumpi\n      mload(0x40)\n      0x08c379a000000000000000000000000000000000000000000000000000000000\n      dup2\n      mstore\n      0x04\n      add\n      tag_32\n      swap1\n      tag_33\n      jump\t// in\n    tag_32:\n      mload(0x40)\n      dup1\n      swap2\n      sub\n      swap1\n      revert\n    tag_31:\n        /* \"contracts/BlockchainPassport.sol\":2767:2768  0 */\n      0x00\n        /* \"contracts/BlockchainPassport.sol\":2723:2732  passports */\n      0x01\n        /* \"contracts/BlockchainPassport.sol\":2733:2743  passportID */\n      dup4\n        /* \"contracts/BlockchainPassport.sol\":2723:2744  passports[passportID] */\n      mload(0x40)\n      tag_34\n      swap2\n      swap1\n      tag_35\n      jump\t// in\n    tag_34:\n      swap1\n      dup2\n      mstore\n      0x20\n      add\n      mload(0x40)\n      dup1\n      swap2\n      sub\n      swap1\n      keccak256\n        /* \"contracts/BlockchainPassport.sol\":2723:2755  passports[passportID].holderName */\n      0x00\n      add\n        /* \"contracts/BlockchainPassport.sol\":2717:2763  bytes(passports[passportID].holderName).length */\n      dup1\n      sload\n      tag_36\n      swap1\n      tag_37\n      jump\t// in\n    tag_36:\n      swap1\n      pop\n        /* \"contracts/BlockchainPassport.sol\":2717:2768  bytes(passports[passportID].holderName).length != 0 */\n      sub\n        /* \"contracts/BlockchainPassport.sol\":2709:2799  require(bytes(passports[passportID].holderName).length != 0, \"Passport ID does not exist\") */\n      tag_38\n      jumpi\n      mload(0x40)\n      0x08c379a000000000000000000000000000000000000000000000000000000000\n      dup2\n      mstore\n      0x04\n      add\n      tag_39\n      swap1\n      tag_40\n      jump\t// in\n    tag_39:\n      mload(0x40)\n      dup1\n      swap2\n      sub\n      swap1\n      revert\n    tag_38:\n        /* \"contracts/BlockchainPassport.sol\":2842:2851  newStatus */\n      dup1\n        /* \"contracts/BlockchainPassport.sol\":2810:2819  passports */\n      0x01\n        /* \"contracts/BlockchainPassport.sol\":2820:2830  passportID */\n      dup4\n        /* \"contracts/BlockchainPassport.sol\":2810:2831  passports[passportID] */\n      mload(0x40)\n      tag_41\n      swap2\n      swap1\n      tag_35\n      jump\t// in\n    tag_41:\n      swap1\n      dup2\n      mstore\n      0x20\n      add\n      mload(0x40)\n      dup1\n      swap2\n      sub\n      swap1\n      keccak256\n        /* \"contracts/BlockchainPassport.sol\":2810:2839  passports[passportID].isValid */\n      0x05\n      add\n      0x00\n        /* \"contracts/BlockchainPassport.sol\":2810:2851  passports[passportID].isValid = newStatus */\n      0x0100\n      exp\n      dup2\n      sload\n      dup2\n      0xff\n      mul\n      not\n      and\n      swap1\n      dup4\n      iszero\n      iszero\n      mul\n      or\n      swap1\n      sstore\n      pop\n        /* \"contracts/BlockchainPassport.sol\":2882:2926  PassportStatusUpdated(passportID, newStatus) */\n      0xae28c8e1b65deb76a9fe4be4aecbbb455b3c6aa0ea12906cb6d777048225186b\n        /* \"contracts/BlockchainPassport.sol\":2904:2914  passportID */\n      dup3\n        /* \"contracts/BlockchainPassport.sol\":2916:2925  newStatus */\n      dup3\n        /* \"contracts/BlockchainPassport.sol\":2882:2926  PassportStatusUpdated(passportID, newStatus) */\n      mload(0x40)\n      tag_42\n      swap3\n      swap2\n      swap1\n      tag_43\n      jump\t// in\n    tag_42:\n      mload(0x40)\n      dup1\n      swap2\n      sub\n      swap1\n      log1\n        /* \"contracts/BlockchainPassport.sol\":2513:2961  function updatePassportStatus(string memory passportID, bool newStatus) public payable onlyIssuer {... */\n      pop\n      pop\n      jump\t// out\n        /* \"contracts/BlockchainPassport.sol\":1829:2467  function getPassport(string memory passportID) public view returns (... */\n    tag_14:\n        /* \"contracts/BlockchainPassport.sol\":1906:1930  string memory holderName */\n      0x60\n        /* \"contracts/BlockchainPassport.sol\":1940:1965  string memory nationality */\n      dup1\n        /* \"contracts/BlockchainPassport.sol\":1975:1992  uint256 birthDate */\n      0x00\n        /* \"contracts/BlockchainPassport.sol\":2002:2019  uint256 issueDate */\n      dup1\n        /* \"contracts/BlockchainPassport.sol\":2029:2047  uint256 expiryDate */\n      0x00\n        /* \"contracts/BlockchainPassport.sol\":2057:2069  bool isValid */\n      dup1\n        /* \"contracts/BlockchainPassport.sol\":2144:2145  0 */\n      0x00\n        /* \"contracts/BlockchainPassport.sol\":2100:2109  passports */\n      0x01\n        /* \"contracts/BlockchainPassport.sol\":2110:2120  passportID */\n      dup9\n        /* \"contracts/BlockchainPassport.sol\":2100:2121  passports[passportID] */\n      mload(0x40)\n      tag_45\n      swap2\n      swap1\n      tag_35\n      jump\t// in\n    tag_45:\n      swap1\n      dup2\n      mstore\n      0x20\n      add\n      mload(0x40)\n      dup1\n      swap2\n      sub\n      swap1\n      keccak256\n        /* \"contracts/BlockchainPassport.sol\":2100:2132  passports[passportID].holderName */\n      0x00\n      add\n        /* \"contracts/BlockchainPassport.sol\":2094:2140  bytes(passports[passportID].holderName).length */\n      dup1\n      sload\n      tag_46\n      swap1\n      tag_37\n      jump\t// in\n    tag_46:\n      swap1\n      pop\n        /* \"contracts/BlockchainPassport.sol\":2094:2145  bytes(passports[passportID].holderName).length != 0 */\n      sub\n        /* \"contracts/BlockchainPassport.sol\":2086:2176  require(bytes(passports[passportID].holderName).length != 0, \"Passport ID does not exist\") */\n      tag_47\n      jumpi\n      mload(0x40)\n      0x08c379a000000000000000000000000000000000000000000000000000000000\n      dup2\n      mstore\n      0x04\n      add\n      tag_48\n      swap1\n      tag_40\n      jump\t// in\n    tag_48:\n      mload(0x40)\n      dup1\n      swap2\n      sub\n      swap1\n      revert\n    tag_47:\n        /* \"contracts/BlockchainPassport.sol\":2187:2215  PassportInfo memory passport */\n      0x00\n        /* \"contracts/BlockchainPassport.sol\":2218:2227  passports */\n      0x01\n        /* \"contracts/BlockchainPassport.sol\":2228:2238  passportID */\n      dup9\n        /* \"contracts/BlockchainPassport.sol\":2218:2239  passports[passportID] */\n      mload(0x40)\n      tag_49\n      swap2\n      swap1\n      tag_35\n      jump\t// in\n    tag_49:\n      swap1\n      dup2\n      mstore\n      0x20\n      add\n      mload(0x40)\n      dup1\n      swap2\n      sub\n      swap1\n      keccak256\n        /* \"contracts/BlockchainPassport.sol\":2187:2239  PassportInfo memory passport = passports[passportID] */\n      mload(0x40)\n      dup1\n      0xc0\n      add\n      0x40\n      mstore\n      swap1\n      dup2\n      0x00\n      dup3\n      add\n      dup1\n      sload\n      tag_50\n      swap1\n      tag_37\n      jump\t// in\n    tag_50:\n      dup1\n      0x1f\n      add\n      0x20\n      dup1\n      swap2\n      div\n      mul\n      0x20\n      add\n      mload(0x40)\n      swap1\n      dup2\n      add\n      0x40\n      mstore\n      dup1\n      swap3\n      swap2\n      swap1\n      dup2\n      dup2\n      mstore\n      0x20\n      add\n      dup3\n      dup1\n      sload\n      tag_51\n      swap1\n      tag_37\n      jump\t// in\n    tag_51:\n      dup1\n      iszero\n      tag_52\n      jumpi\n      dup1\n      0x1f\n      lt\n      tag_53\n      jumpi\n      0x0100\n      dup1\n      dup4\n      sload\n      div\n      mul\n      dup4\n      mstore\n      swap2\n      0x20\n      add\n      swap2\n      jump(tag_52)\n    tag_53:\n      dup3\n      add\n      swap2\n      swap1\n      0x00\n      mstore\n      keccak256(0x00, 0x20)\n      swap1\n    tag_54:\n      dup2\n      sload\n      dup2\n      mstore\n      swap1\n      0x01\n      add\n      swap1\n      0x20\n      add\n      dup1\n      dup4\n      gt\n      tag_54\n      jumpi\n      dup3\n      swap1\n      sub\n      0x1f\n      and\n      dup3\n      add\n      swap2\n    tag_52:\n      pop\n      pop\n      pop\n      pop\n      pop\n      dup2\n      mstore\n      0x20\n      add\n      0x01\n      dup3\n      add\n      dup1\n      sload\n      tag_55\n      swap1\n      tag_37\n      jump\t// in\n    tag_55:\n      dup1\n      0x1f\n      add\n      0x20\n      dup1\n      swap2\n      div\n      mul\n      0x20\n      add\n      mload(0x40)\n      swap1\n      dup2\n      add\n      0x40\n      mstore\n      dup1\n      swap3\n      swap2\n      swap1\n      dup2\n      dup2\n      mstore\n      0x20\n      add\n      dup3\n      dup1\n      sload\n      tag_56\n      swap1\n      tag_37\n      jump\t// in\n    tag_56:\n      dup1\n      iszero\n      tag_57\n      jumpi\n      dup1\n      0x1f\n      lt\n      tag_58\n      jumpi\n      0x0100\n      dup1\n      dup4\n      sload\n      div\n      mul\n      dup4\n      mstore\n      swap2\n      0x20\n      add\n      swap2\n      jump(tag_57)\n    tag_58:\n      dup3\n      add\n      swap2\n      swap1\n      0x00\n      mstore\n      keccak256(0x00, 0x20)\n      swap1\n    tag_59:\n      dup2\n      sload\n      dup2\n      mstore\n      swap1\n      0x01\n      add\n      swap1\n      0x20\n      add\n      dup1\n      dup4\n      gt\n      tag_59\n      jumpi\n      dup3\n      swap1\n      sub\n      0x1f\n      and\n      dup3\n      add\n      swap2\n    tag_57:\n      pop\n      pop\n      pop\n      pop\n      pop\n      dup2\n      mstore\n      0x20\n      add\n      0x02\n      dup3\n      add\n      sload\n      dup2\n      mstore\n      0x20\n      add\n      0x03\n      dup3\n      add\n      sload\n      dup2\n      mstore\n      0x20\n      add\n      0x04\n      dup3\n      add\n      sload\n      dup2\n      mstore\n      0x20\n      add\n      0x05\n      dup3\n      add\n      0x00\n      swap1\n      sload\n      swap1\n      0x0100\n      exp\n      swap1\n      div\n      0xff\n      and\n      iszero\n      iszero\n      iszero\n      iszero\n      dup2\n      mstore\n      pop\n      pop\n      swap1\n      pop\n        /* \"contracts/BlockchainPassport.sol\":2270:2278  passport */\n      dup1\n        /* \"contracts/BlockchainPassport.sol\":2270:2289  passport.holderName */\n      0x00\n      add\n      mload\n        /* \"contracts/BlockchainPassport.sol\":2303:2311  passport */\n      dup2\n        /* \"contracts/BlockchainPassport.sol\":2303:2323  passport.nationality */\n      0x20\n      add\n      mload\n        /* \"contracts/BlockchainPassport.sol\":2337:2345  passport */\n      dup3\n        /* \"contracts/BlockchainPassport.sol\":2337:2355  passport.birthDate */\n      0x40\n      add\n      mload\n        /* \"contracts/BlockchainPassport.sol\":2369:2377  passport */\n      dup4\n        /* \"contracts/BlockchainPassport.sol\":2369:2387  passport.issueDate */\n      0x60\n      add\n      mload\n        /* \"contracts/BlockchainPassport.sol\":2401:2409  passport */\n      dup5\n        /* \"contracts/BlockchainPassport.sol\":2401:2420  passport.expiryDate */\n      0x80\n      add\n      mload\n        /* \"contracts/BlockchainPassport.sol\":2434:2442  passport */\n      dup6\n        /* \"contracts/BlockchainPassport.sol\":2434:2450  passport.isValid */\n      0xa0\n      add\n      mload\n        /* \"contracts/BlockchainPassport.sol\":2249:2460  return (... */\n      swap7\n      pop\n      swap7\n      pop\n      swap7\n      pop\n      swap7\n      pop\n      swap7\n      pop\n      swap7\n      pop\n      pop\n        /* \"contracts/BlockchainPassport.sol\":1829:2467  function getPassport(string memory passportID) public view returns (... */\n      swap2\n      swap4\n      swap6\n      pop\n      swap2\n      swap4\n      swap6\n      jump\t// out\n        /* \"contracts/BlockchainPassport.sol\":983:1783  function issuePassport(... */\n    tag_20:\n        /* \"contracts/BlockchainPassport.sol\":877:882  admin */\n      0x00\n      dup1\n      sload\n      swap1\n      0x0100\n      exp\n      swap1\n      div\n      0xffffffffffffffffffffffffffffffffffffffff\n      and\n        /* \"contracts/BlockchainPassport.sol\":863:882  msg.sender == admin */\n      0xffffffffffffffffffffffffffffffffffffffff\n      and\n        /* \"contracts/BlockchainPassport.sol\":863:873  msg.sender */\n      caller\n        /* \"contracts/BlockchainPassport.sol\":863:882  msg.sender == admin */\n      0xffffffffffffffffffffffffffffffffffffffff\n      and\n      eq\n        /* \"contracts/BlockchainPassport.sol\":855:925  require(msg.sender == admin, \"Only the admin can perform this action\") */\n      tag_61\n      jumpi\n      mload(0x40)\n      0x08c379a000000000000000000000000000000000000000000000000000000000\n      dup2\n      mstore\n      0x04\n      add\n      tag_62\n      swap1\n      tag_29\n      jump\t// in\n    tag_62:\n      mload(0x40)\n      dup1\n      swap2\n      sub\n      swap1\n      revert\n    tag_61:\n        /* \"contracts/BlockchainPassport.sol\":1275:1276  0 */\n      0x00\n        /* \"contracts/BlockchainPassport.sol\":1263:1272  msg.value */\n      callvalue\n        /* \"contracts/BlockchainPassport.sol\":1263:1276  msg.value > 0 */\n      gt\n        /* \"contracts/BlockchainPassport.sol\":1255:1305  require(msg.value > 0, \"Transaction requires ETH\") */\n      tag_64\n      jumpi\n      mload(0x40)\n      0x08c379a000000000000000000000000000000000000000000000000000000000\n      dup2\n      mstore\n      0x04\n      add\n      tag_65\n      swap1\n      tag_33\n      jump\t// in\n    tag_65:\n      mload(0x40)\n      dup1\n      swap2\n      sub\n      swap1\n      revert\n    tag_64:\n        /* \"contracts/BlockchainPassport.sol\":1401:1402  0 */\n      0x00\n        /* \"contracts/BlockchainPassport.sol\":1357:1366  passports */\n      0x01\n        /* \"contracts/BlockchainPassport.sol\":1367:1377  passportID */\n      dup9\n        /* \"contracts/BlockchainPassport.sol\":1357:1378  passports[passportID] */\n      mload(0x40)\n      tag_66\n      swap2\n      swap1\n      tag_35\n      jump\t// in\n    tag_66:\n      swap1\n      dup2\n      mstore\n      0x20\n      add\n      mload(0x40)\n      dup1\n      swap2\n      sub\n      swap1\n      keccak256\n        /* \"contracts/BlockchainPassport.sol\":1357:1389  passports[passportID].holderName */\n      0x00\n      add\n        /* \"contracts/BlockchainPassport.sol\":1351:1397  bytes(passports[passportID].holderName).length */\n      dup1\n      sload\n      tag_67\n      swap1\n      tag_37\n      jump\t// in\n    tag_67:\n      swap1\n      pop\n        /* \"contracts/BlockchainPassport.sol\":1351:1402  bytes(passports[passportID].holderName).length == 0 */\n      eq\n        /* \"contracts/BlockchainPassport.sol\":1343:1433  require(bytes(passports[passportID].holderName).length == 0, \"Passport ID already exists\") */\n      tag_68\n      jumpi\n      mload(0x40)\n      0x08c379a000000000000000000000000000000000000000000000000000000000\n      dup2\n      mstore\n      0x04\n      add\n      tag_69\n      swap1\n      tag_70\n      jump\t// in\n    tag_69:\n      mload(0x40)\n      dup1\n      swap2\n      sub\n      swap1\n      revert\n    tag_68:\n        /* \"contracts/BlockchainPassport.sol\":1468:1700  PassportInfo({... */\n      mload(0x40)\n      dup1\n      0xc0\n      add\n      0x40\n      mstore\n      dup1\n        /* \"contracts/BlockchainPassport.sol\":1507:1517  holderName */\n      dup8\n        /* \"contracts/BlockchainPassport.sol\":1468:1700  PassportInfo({... */\n      dup2\n      mstore\n      0x20\n      add\n        /* \"contracts/BlockchainPassport.sol\":1544:1555  nationality */\n      dup7\n        /* \"contracts/BlockchainPassport.sol\":1468:1700  PassportInfo({... */\n      dup2\n      mstore\n      0x20\n      add\n        /* \"contracts/BlockchainPassport.sol\":1580:1589  birthDate */\n      dup6\n        /* \"contracts/BlockchainPassport.sol\":1468:1700  PassportInfo({... */\n      dup2\n      mstore\n      0x20\n      add\n        /* \"contracts/BlockchainPassport.sol\":1614:1623  issueDate */\n      dup5\n        /* \"contracts/BlockchainPassport.sol\":1468:1700  PassportInfo({... */\n      dup2\n      mstore\n      0x20\n      add\n        /* \"contracts/BlockchainPassport.sol\":1649:1659  expiryDate */\n      dup4\n        /* \"contracts/BlockchainPassport.sol\":1468:1700  PassportInfo({... */\n      dup2\n      mstore\n      0x20\n      add\n        /* \"contracts/BlockchainPassport.sol\":1682:1689  isValid */\n      dup3\n        /* \"contracts/BlockchainPassport.sol\":1468:1700  PassportInfo({... */\n      iszero\n      iszero\n      dup2\n      mstore\n      pop\n        /* \"contracts/BlockchainPassport.sol\":1444:1453  passports */\n      0x01\n        /* \"contracts/BlockchainPassport.sol\":1454:1464  passportID */\n      dup9\n        /* \"contracts/BlockchainPassport.sol\":1444:1465  passports[passportID] */\n      mload(0x40)\n      tag_71\n      swap2\n      swap1\n      tag_35\n      jump\t// in\n    tag_71:\n      swap1\n      dup2\n      mstore\n      0x20\n      add\n      mload(0x40)\n      dup1\n      swap2\n      sub\n      swap1\n      keccak256\n        /* \"contracts/BlockchainPassport.sol\":1444:1700  passports[passportID] = PassportInfo({... */\n      0x00\n      dup3\n      add\n      mload\n      dup2\n      0x00\n      add\n      swap1\n      dup2\n      tag_72\n      swap2\n      swap1\n      tag_73\n      jump\t// in\n    tag_72:\n      pop\n      0x20\n      dup3\n      add\n      mload\n      dup2\n      0x01\n      add\n      swap1\n      dup2\n      tag_74\n      swap2\n      swap1\n      tag_73\n      jump\t// in\n    tag_74:\n      pop\n      0x40\n      dup3\n      add\n      mload\n      dup2\n      0x02\n      add\n      sstore\n      0x60\n      dup3\n      add\n      mload\n      dup2\n      0x03\n      add\n      sstore\n      0x80\n      dup3\n      add\n      mload\n      dup2\n      0x04\n      add\n      sstore\n      0xa0\n      dup3\n      add\n      mload\n      dup2\n      0x05\n      add\n      exp(0x0100, 0x00)\n      dup2\n      sload\n      dup2\n      0xff\n      mul\n      not\n      and\n      swap1\n      dup4\n      iszero\n      iszero\n      mul\n      or\n      swap1\n      sstore\n      pop\n      swap1\n      pop\n      pop\n        /* \"contracts/BlockchainPassport.sol\":1716:1754  PassportIssued(passportID, holderName) */\n      0x72749d8c84e9e54c7aa0a99f07909b6bddba840ee6fca8c832e2787b3ecd9812\n        /* \"contracts/BlockchainPassport.sol\":1731:1741  passportID */\n      dup8\n        /* \"contracts/BlockchainPassport.sol\":1743:1753  holderName */\n      dup8\n        /* \"contracts/BlockchainPassport.sol\":1716:1754  PassportIssued(passportID, holderName) */\n      mload(0x40)\n      tag_75\n      swap3\n      swap2\n      swap1\n      tag_76\n      jump\t// in\n    tag_75:\n      mload(0x40)\n      dup1\n      swap2\n      sub\n      swap1\n      log1\n        /* \"contracts/BlockchainPassport.sol\":983:1783  function issuePassport(... */\n      pop\n      pop\n      pop\n      pop\n      pop\n      pop\n      pop\n      jump\t// out\n        /* \"contracts/BlockchainPassport.sol\":91:111  address public admin */\n    tag_23:\n      0x00\n      dup1\n      sload\n      swap1\n      0x0100\n      exp\n      swap1\n      div\n      0xffffffffffffffffffffffffffffffffffffffff\n      and\n      dup2\n      jump\t// out\n        /* \"#utility.yul\":7:82   */\n    tag_77:\n        /* \"#utility.yul\":40:46   */\n      0x00\n        /* \"#utility.yul\":73:75   */\n      0x40\n        /* \"#utility.yul\":67:76   */\n      mload\n        /* \"#utility.yul\":57:76   */\n      swap1\n      pop\n        /* \"#utility.yul\":7:82   */\n      swap1\n      jump\t// out\n        /* \"#utility.yul\":88:205   */\n    tag_78:\n        /* \"#utility.yul\":197:198   */\n      0x00\n        /* \"#utility.yul\":194:195   */\n      dup1\n        /* \"#utility.yul\":187:199   */\n      revert\n        /* \"#utility.yul\":211:328   */\n    tag_79:\n        /* \"#utility.yul\":320:321   */\n      0x00\n        /* \"#utility.yul\":317:318   */\n      dup1\n        /* \"#utility.yul\":310:322   */\n      revert\n        /* \"#utility.yul\":334:451   */\n    tag_80:\n        /* \"#utility.yul\":443:444   */\n      0x00\n        /* \"#utility.yul\":440:441   */\n      dup1\n        /* \"#utility.yul\":433:445   */\n      revert\n        /* \"#utility.yul\":457:574   */\n    tag_81:\n        /* \"#utility.yul\":566:567   */\n      0x00\n        /* \"#utility.yul\":563:564   */\n      dup1\n        /* \"#utility.yul\":556:568   */\n      revert\n        /* \"#utility.yul\":580:682   */\n    tag_82:\n        /* \"#utility.yul\":621:627   */\n      0x00\n        /* \"#utility.yul\":672:674   */\n      0x1f\n        /* \"#utility.yul\":668:675   */\n      not\n        /* \"#utility.yul\":663:665   */\n      0x1f\n        /* \"#utility.yul\":656:661   */\n      dup4\n        /* \"#utility.yul\":652:666   */\n      add\n        /* \"#utility.yul\":648:676   */\n      and\n        /* \"#utility.yul\":638:676   */\n      swap1\n      pop\n        /* \"#utility.yul\":580:682   */\n      swap2\n      swap1\n      pop\n      jump\t// out\n        /* \"#utility.yul\":688:868   */\n    tag_83:\n        /* \"#utility.yul\":736:813   */\n      0x4e487b7100000000000000000000000000000000000000000000000000000000\n        /* \"#utility.yul\":733:734   */\n      0x00\n        /* \"#utility.yul\":726:814   */\n      mstore\n        /* \"#utility.yul\":833:837   */\n      0x41\n        /* \"#utility.yul\":830:831   */\n      0x04\n        /* \"#utility.yul\":823:838   */\n      mstore\n        /* \"#utility.yul\":857:861   */\n      0x24\n        /* \"#utility.yul\":854:855   */\n      0x00\n        /* \"#utility.yul\":847:862   */\n      revert\n        /* \"#utility.yul\":874:1155   */\n    tag_84:\n        /* \"#utility.yul\":957:984   */\n      tag_140\n        /* \"#utility.yul\":979:983   */\n      dup3\n        /* \"#utility.yul\":957:984   */\n      tag_82\n      jump\t// in\n    tag_140:\n        /* \"#utility.yul\":949:955   */\n      dup2\n        /* \"#utility.yul\":945:985   */\n      add\n        /* \"#utility.yul\":1087:1093   */\n      dup2\n        /* \"#utility.yul\":1075:1085   */\n      dup2\n        /* \"#utility.yul\":1072:1094   */\n      lt\n        /* \"#utility.yul\":1051:1069   */\n      0xffffffffffffffff\n        /* \"#utility.yul\":1039:1049   */\n      dup3\n        /* \"#utility.yul\":1036:1070   */\n      gt\n        /* \"#utility.yul\":1033:1095   */\n      or\n        /* \"#utility.yul\":1030:1118   */\n      iszero\n      tag_141\n      jumpi\n        /* \"#utility.yul\":1098:1116   */\n      tag_142\n      tag_83\n      jump\t// in\n    tag_142:\n        /* \"#utility.yul\":1030:1118   */\n    tag_141:\n        /* \"#utility.yul\":1138:1148   */\n      dup1\n        /* \"#utility.yul\":1134:1136   */\n      0x40\n        /* \"#utility.yul\":1127:1149   */\n      mstore\n        /* \"#utility.yul\":917:1155   */\n      pop\n        /* \"#utility.yul\":874:1155   */\n      pop\n      pop\n      jump\t// out\n        /* \"#utility.yul\":1161:1290   */\n    tag_85:\n        /* \"#utility.yul\":1195:1201   */\n      0x00\n        /* \"#utility.yul\":1222:1242   */\n      tag_144\n      tag_77\n      jump\t// in\n    tag_144:\n        /* \"#utility.yul\":1212:1242   */\n      swap1\n      pop\n        /* \"#utility.yul\":1251:1284   */\n      tag_145\n        /* \"#utility.yul\":1279:1283   */\n      dup3\n        /* \"#utility.yul\":1271:1277   */\n      dup3\n        /* \"#utility.yul\":1251:1284   */\n      tag_84\n      jump\t// in\n    tag_145:\n        /* \"#utility.yul\":1161:1290   */\n      swap2\n      swap1\n      pop\n      jump\t// out\n        /* \"#utility.yul\":1296:1604   */\n    tag_86:\n        /* \"#utility.yul\":1358:1362   */\n      0x00\n        /* \"#utility.yul\":1448:1466   */\n      0xffffffffffffffff\n        /* \"#utility.yul\":1440:1446   */\n      dup3\n        /* \"#utility.yul\":1437:1467   */\n      gt\n        /* \"#utility.yul\":1434:1490   */\n      iszero\n      tag_147\n      jumpi\n        /* \"#utility.yul\":1470:1488   */\n      tag_148\n      tag_83\n      jump\t// in\n    tag_148:\n        /* \"#utility.yul\":1434:1490   */\n    tag_147:\n        /* \"#utility.yul\":1508:1537   */\n      tag_149\n        /* \"#utility.yul\":1530:1536   */\n      dup3\n        /* \"#utility.yul\":1508:1537   */\n      tag_82\n      jump\t// in\n    tag_149:\n        /* \"#utility.yul\":1500:1537   */\n      swap1\n      pop\n        /* \"#utility.yul\":1592:1596   */\n      0x20\n        /* \"#utility.yul\":1586:1590   */\n      dup2\n        /* \"#utility.yul\":1582:1597   */\n      add\n        /* \"#utility.yul\":1574:1597   */\n      swap1\n      pop\n        /* \"#utility.yul\":1296:1604   */\n      swap2\n      swap1\n      pop\n      jump\t// out\n        /* \"#utility.yul\":1610:1756   */\n    tag_87:\n        /* \"#utility.yul\":1707:1713   */\n      dup3\n        /* \"#utility.yul\":1702:1705   */\n      dup2\n        /* \"#utility.yul\":1697:1700   */\n      dup4\n        /* \"#utility.yul\":1684:1714   */\n      calldatacopy\n        /* \"#utility.yul\":1748:1749   */\n      0x00\n        /* \"#utility.yul\":1739:1745   */\n      dup4\n        /* \"#utility.yul\":1734:1737   */\n      dup4\n        /* \"#utility.yul\":1730:1746   */\n      add\n        /* \"#utility.yul\":1723:1750   */\n      mstore\n        /* \"#utility.yul\":1610:1756   */\n      pop\n      pop\n      pop\n      jump\t// out\n        /* \"#utility.yul\":1762:2187   */\n    tag_88:\n        /* \"#utility.yul\":1840:1845   */\n      0x00\n        /* \"#utility.yul\":1865:1931   */\n      tag_152\n        /* \"#utility.yul\":1881:1930   */\n      tag_153\n        /* \"#utility.yul\":1923:1929   */\n      dup5\n        /* \"#utility.yul\":1881:1930   */\n      tag_86\n      jump\t// in\n    tag_153:\n        /* \"#utility.yul\":1865:1931   */\n      tag_85\n      jump\t// in\n    tag_152:\n        /* \"#utility.yul\":1856:1931   */\n      swap1\n      pop\n        /* \"#utility.yul\":1954:1960   */\n      dup3\n        /* \"#utility.yul\":1947:1952   */\n      dup2\n        /* \"#utility.yul\":1940:1961   */\n      mstore\n        /* \"#utility.yul\":1992:1996   */\n      0x20\n        /* \"#utility.yul\":1985:1990   */\n      dup2\n        /* \"#utility.yul\":1981:1997   */\n      add\n        /* \"#utility.yul\":2030:2033   */\n      dup5\n        /* \"#utility.yul\":2021:2027   */\n      dup5\n        /* \"#utility.yul\":2016:2019   */\n      dup5\n        /* \"#utility.yul\":2012:2028   */\n      add\n        /* \"#utility.yul\":2009:2034   */\n      gt\n        /* \"#utility.yul\":2006:2118   */\n      iszero\n      tag_154\n      jumpi\n        /* \"#utility.yul\":2037:2116   */\n      tag_155\n      tag_81\n      jump\t// in\n    tag_155:\n        /* \"#utility.yul\":2006:2118   */\n    tag_154:\n        /* \"#utility.yul\":2127:2181   */\n      tag_156\n        /* \"#utility.yul\":2174:2180   */\n      dup5\n        /* \"#utility.yul\":2169:2172   */\n      dup3\n        /* \"#utility.yul\":2164:2167   */\n      dup6\n        /* \"#utility.yul\":2127:2181   */\n      tag_87\n      jump\t// in\n    tag_156:\n        /* \"#utility.yul\":1846:2187   */\n      pop\n        /* \"#utility.yul\":1762:2187   */\n      swap4\n      swap3\n      pop\n      pop\n      pop\n      jump\t// out\n        /* \"#utility.yul\":2207:2547   */\n    tag_89:\n        /* \"#utility.yul\":2263:2268   */\n      0x00\n        /* \"#utility.yul\":2312:2315   */\n      dup3\n        /* \"#utility.yul\":2305:2309   */\n      0x1f\n        /* \"#utility.yul\":2297:2303   */\n      dup4\n        /* \"#utility.yul\":2293:2310   */\n      add\n        /* \"#utility.yul\":2289:2316   */\n      slt\n        /* \"#utility.yul\":2279:2401   */\n      tag_158\n      jumpi\n        /* \"#utility.yul\":2320:2399   */\n      tag_159\n      tag_80\n      jump\t// in\n    tag_159:\n        /* \"#utility.yul\":2279:2401   */\n    tag_158:\n        /* \"#utility.yul\":2437:2443   */\n      dup2\n        /* \"#utility.yul\":2424:2444   */\n      calldataload\n        /* \"#utility.yul\":2462:2541   */\n      tag_160\n        /* \"#utility.yul\":2537:2540   */\n      dup5\n        /* \"#utility.yul\":2529:2535   */\n      dup3\n        /* \"#utility.yul\":2522:2526   */\n      0x20\n        /* \"#utility.yul\":2514:2520   */\n      dup7\n        /* \"#utility.yul\":2510:2527   */\n      add\n        /* \"#utility.yul\":2462:2541   */\n      tag_88\n      jump\t// in\n    tag_160:\n        /* \"#utility.yul\":2453:2541   */\n      swap2\n      pop\n        /* \"#utility.yul\":2269:2547   */\n      pop\n        /* \"#utility.yul\":2207:2547   */\n      swap3\n      swap2\n      pop\n      pop\n      jump\t// out\n        /* \"#utility.yul\":2553:2643   */\n    tag_90:\n        /* \"#utility.yul\":2587:2594   */\n      0x00\n        /* \"#utility.yul\":2630:2635   */\n      dup2\n        /* \"#utility.yul\":2623:2636   */\n      iszero\n        /* \"#utility.yul\":2616:2637   */\n      iszero\n        /* \"#utility.yul\":2605:2637   */\n      swap1\n      pop\n        /* \"#utility.yul\":2553:2643   */\n      swap2\n      swap1\n      pop\n      jump\t// out\n        /* \"#utility.yul\":2649:2765   */\n    tag_91:\n        /* \"#utility.yul\":2719:2740   */\n      tag_163\n        /* \"#utility.yul\":2734:2739   */\n      dup2\n        /* \"#utility.yul\":2719:2740   */\n      tag_90\n      jump\t// in\n    tag_163:\n        /* \"#utility.yul\":2712:2717   */\n      dup2\n        /* \"#utility.yul\":2709:2741   */\n      eq\n        /* \"#utility.yul\":2699:2759   */\n      tag_164\n      jumpi\n        /* \"#utility.yul\":2755:2756   */\n      0x00\n        /* \"#utility.yul\":2752:2753   */\n      dup1\n        /* \"#utility.yul\":2745:2757   */\n      revert\n        /* \"#utility.yul\":2699:2759   */\n    tag_164:\n        /* \"#utility.yul\":2649:2765   */\n      pop\n      jump\t// out\n        /* \"#utility.yul\":2771:2904   */\n    tag_92:\n        /* \"#utility.yul\":2814:2819   */\n      0x00\n        /* \"#utility.yul\":2852:2858   */\n      dup2\n        /* \"#utility.yul\":2839:2859   */\n      calldataload\n        /* \"#utility.yul\":2830:2859   */\n      swap1\n      pop\n        /* \"#utility.yul\":2868:2898   */\n      tag_166\n        /* \"#utility.yul\":2892:2897   */\n      dup2\n        /* \"#utility.yul\":2868:2898   */\n      tag_91\n      jump\t// in\n    tag_166:\n        /* \"#utility.yul\":2771:2904   */\n      swap3\n      swap2\n      pop\n      pop\n      jump\t// out\n        /* \"#utility.yul\":2910:3558   */\n    tag_8:\n        /* \"#utility.yul\":2985:2991   */\n      0x00\n        /* \"#utility.yul\":2993:2999   */\n      dup1\n        /* \"#utility.yul\":3042:3044   */\n      0x40\n        /* \"#utility.yul\":3030:3039   */\n      dup4\n        /* \"#utility.yul\":3021:3028   */\n      dup6\n        /* \"#utility.yul\":3017:3040   */\n      sub\n        /* \"#utility.yul\":3013:3045   */\n      slt\n        /* \"#utility.yul\":3010:3129   */\n      iszero\n      tag_168\n      jumpi\n        /* \"#utility.yul\":3048:3127   */\n      tag_169\n      tag_78\n      jump\t// in\n    tag_169:\n        /* \"#utility.yul\":3010:3129   */\n    tag_168:\n        /* \"#utility.yul\":3196:3197   */\n      0x00\n        /* \"#utility.yul\":3185:3194   */\n      dup4\n        /* \"#utility.yul\":3181:3198   */\n      add\n        /* \"#utility.yul\":3168:3199   */\n      calldataload\n        /* \"#utility.yul\":3226:3244   */\n      0xffffffffffffffff\n        /* \"#utility.yul\":3218:3224   */\n      dup2\n        /* \"#utility.yul\":3215:3245   */\n      gt\n        /* \"#utility.yul\":3212:3329   */\n      iszero\n      tag_170\n      jumpi\n        /* \"#utility.yul\":3248:3327   */\n      tag_171\n      tag_79\n      jump\t// in\n    tag_171:\n        /* \"#utility.yul\":3212:3329   */\n    tag_170:\n        /* \"#utility.yul\":3353:3416   */\n      tag_172\n        /* \"#utility.yul\":3408:3415   */\n      dup6\n        /* \"#utility.yul\":3399:3405   */\n      dup3\n        /* \"#utility.yul\":3388:3397   */\n      dup7\n        /* \"#utility.yul\":3384:3406   */\n      add\n        /* \"#utility.yul\":3353:3416   */\n      tag_89\n      jump\t// in\n    tag_172:\n        /* \"#utility.yul\":3343:3416   */\n      swap3\n      pop\n        /* \"#utility.yul\":3139:3426   */\n      pop\n        /* \"#utility.yul\":3465:3467   */\n      0x20\n        /* \"#utility.yul\":3491:3541   */\n      tag_173\n        /* \"#utility.yul\":3533:3540   */\n      dup6\n        /* \"#utility.yul\":3524:3530   */\n      dup3\n        /* \"#utility.yul\":3513:3522   */\n      dup7\n        /* \"#utility.yul\":3509:3531   */\n      add\n        /* \"#utility.yul\":3491:3541   */\n      tag_92\n      jump\t// in\n    tag_173:\n        /* \"#utility.yul\":3481:3541   */\n      swap2\n      pop\n        /* \"#utility.yul\":3436:3551   */\n      pop\n        /* \"#utility.yul\":2910:3558   */\n      swap3\n      pop\n      swap3\n      swap1\n      pop\n      jump\t// out\n        /* \"#utility.yul\":3564:4073   */\n    tag_13:\n        /* \"#utility.yul\":3633:3639   */\n      0x00\n        /* \"#utility.yul\":3682:3684   */\n      0x20\n        /* \"#utility.yul\":3670:3679   */\n      dup3\n        /* \"#utility.yul\":3661:3668   */\n      dup5\n        /* \"#utility.yul\":3657:3680   */\n      sub\n        /* \"#utility.yul\":3653:3685   */\n      slt\n        /* \"#utility.yul\":3650:3769   */\n      iszero\n      tag_175\n      jumpi\n        /* \"#utility.yul\":3688:3767   */\n      tag_176\n      tag_78\n      jump\t// in\n    tag_176:\n        /* \"#utility.yul\":3650:3769   */\n    tag_175:\n        /* \"#utility.yul\":3836:3837   */\n      0x00\n        /* \"#utility.yul\":3825:3834   */\n      dup3\n        /* \"#utility.yul\":3821:3838   */\n      add\n        /* \"#utility.yul\":3808:3839   */\n      calldataload\n        /* \"#utility.yul\":3866:3884   */\n      0xffffffffffffffff\n        /* \"#utility.yul\":3858:3864   */\n      dup2\n        /* \"#utility.yul\":3855:3885   */\n      gt\n        /* \"#utility.yul\":3852:3969   */\n      iszero\n      tag_177\n      jumpi\n        /* \"#utility.yul\":3888:3967   */\n      tag_178\n      tag_79\n      jump\t// in\n    tag_178:\n        /* \"#utility.yul\":3852:3969   */\n    tag_177:\n        /* \"#utility.yul\":3993:4056   */\n      tag_179\n        /* \"#utility.yul\":4048:4055   */\n      dup5\n        /* \"#utility.yul\":4039:4045   */\n      dup3\n        /* \"#utility.yul\":4028:4037   */\n      dup6\n        /* \"#utility.yul\":4024:4046   */\n      add\n        /* \"#utility.yul\":3993:4056   */\n      tag_89\n      jump\t// in\n    tag_179:\n        /* \"#utility.yul\":3983:4056   */\n      swap2\n      pop\n        /* \"#utility.yul\":3779:4066   */\n      pop\n        /* \"#utility.yul\":3564:4073   */\n      swap3\n      swap2\n      pop\n      pop\n      jump\t// out\n        /* \"#utility.yul\":4079:4178   */\n    tag_93:\n        /* \"#utility.yul\":4131:4137   */\n      0x00\n        /* \"#utility.yul\":4165:4170   */\n      dup2\n        /* \"#utility.yul\":4159:4171   */\n      mload\n        /* \"#utility.yul\":4149:4171   */\n      swap1\n      pop\n        /* \"#utility.yul\":4079:4178   */\n      swap2\n      swap1\n      pop\n      jump\t// out\n        /* \"#utility.yul\":4184:4353   */\n    tag_94:\n        /* \"#utility.yul\":4268:4279   */\n      0x00\n        /* \"#utility.yul\":4302:4308   */\n      dup3\n        /* \"#utility.yul\":4297:4300   */\n      dup3\n        /* \"#utility.yul\":4290:4309   */\n      mstore\n        /* \"#utility.yul\":4342:4346   */\n      0x20\n        /* \"#utility.yul\":4337:4340   */\n      dup3\n        /* \"#utility.yul\":4333:4347   */\n      add\n        /* \"#utility.yul\":4318:4347   */\n      swap1\n      pop\n        /* \"#utility.yul\":4184:4353   */\n      swap3\n      swap2\n      pop\n      pop\n      jump\t// out\n        /* \"#utility.yul\":4359:4605   */\n    tag_95:\n        /* \"#utility.yul\":4440:4441   */\n      0x00\n        /* \"#utility.yul\":4450:4563   */\n    tag_183:\n        /* \"#utility.yul\":4464:4470   */\n      dup4\n        /* \"#utility.yul\":4461:4462   */\n      dup2\n        /* \"#utility.yul\":4458:4471   */\n      lt\n        /* \"#utility.yul\":4450:4563   */\n      iszero\n      tag_185\n      jumpi\n        /* \"#utility.yul\":4549:4550   */\n      dup1\n        /* \"#utility.yul\":4544:4547   */\n      dup3\n        /* \"#utility.yul\":4540:4551   */\n      add\n        /* \"#utility.yul\":4534:4552   */\n      mload\n        /* \"#utility.yul\":4530:4531   */\n      dup2\n        /* \"#utility.yul\":4525:4528   */\n      dup5\n        /* \"#utility.yul\":4521:4532   */\n      add\n        /* \"#utility.yul\":4514:4553   */\n      mstore\n        /* \"#utility.yul\":4486:4488   */\n      0x20\n        /* \"#utility.yul\":4483:4484   */\n      dup2\n        /* \"#utility.yul\":4479:4489   */\n      add\n        /* \"#utility.yul\":4474:4489   */\n      swap1\n      pop\n        /* \"#utility.yul\":4450:4563   */\n      jump(tag_183)\n    tag_185:\n        /* \"#utility.yul\":4597:4598   */\n      0x00\n        /* \"#utility.yul\":4588:4594   */\n      dup5\n        /* \"#utility.yul\":4583:4586   */\n      dup5\n        /* \"#utility.yul\":4579:4595   */\n      add\n        /* \"#utility.yul\":4572:4599   */\n      mstore\n        /* \"#utility.yul\":4421:4605   */\n      pop\n        /* \"#utility.yul\":4359:4605   */\n      pop\n      pop\n      pop\n      jump\t// out\n        /* \"#utility.yul\":4611:4988   */\n    tag_96:\n        /* \"#utility.yul\":4699:4702   */\n      0x00\n        /* \"#utility.yul\":4727:4766   */\n      tag_187\n        /* \"#utility.yul\":4760:4765   */\n      dup3\n        /* \"#utility.yul\":4727:4766   */\n      tag_93\n      jump\t// in\n    tag_187:\n        /* \"#utility.yul\":4782:4853   */\n      tag_188\n        /* \"#utility.yul\":4846:4852   */\n      dup2\n        /* \"#utility.yul\":4841:4844   */\n      dup6\n        /* \"#utility.yul\":4782:4853   */\n      tag_94\n      jump\t// in\n    tag_188:\n        /* \"#utility.yul\":4775:4853   */\n      swap4\n      pop\n        /* \"#utility.yul\":4862:4927   */\n      tag_189\n        /* \"#utility.yul\":4920:4926   */\n      dup2\n        /* \"#utility.yul\":4915:4918   */\n      dup6\n        /* \"#utility.yul\":4908:4912   */\n      0x20\n        /* \"#utility.yul\":4901:4906   */\n      dup7\n        /* \"#utility.yul\":4897:4913   */\n      add\n        /* \"#utility.yul\":4862:4927   */\n      tag_95\n      jump\t// in\n    tag_189:\n        /* \"#utility.yul\":4952:4981   */\n      tag_190\n        /* \"#utility.yul\":4974:4980   */\n      dup2\n        /* \"#utility.yul\":4952:4981   */\n      tag_82\n      jump\t// in\n    tag_190:\n        /* \"#utility.yul\":4947:4950   */\n      dup5\n        /* \"#utility.yul\":4943:4982   */\n      add\n        /* \"#utility.yul\":4936:4982   */\n      swap2\n      pop\n        /* \"#utility.yul\":4703:4988   */\n      pop\n        /* \"#utility.yul\":4611:4988   */\n      swap3\n      swap2\n      pop\n      pop\n      jump\t// out\n        /* \"#utility.yul\":4994:5071   */\n    tag_97:\n        /* \"#utility.yul\":5031:5038   */\n      0x00\n        /* \"#utility.yul\":5060:5065   */\n      dup2\n        /* \"#utility.yul\":5049:5065   */\n      swap1\n      pop\n        /* \"#utility.yul\":4994:5071   */\n      swap2\n      swap1\n      pop\n      jump\t// out\n        /* \"#utility.yul\":5077:5195   */\n    tag_98:\n        /* \"#utility.yul\":5164:5188   */\n      tag_193\n        /* \"#utility.yul\":5182:5187   */\n      dup2\n        /* \"#utility.yul\":5164:5188   */\n      tag_97\n      jump\t// in\n    tag_193:\n        /* \"#utility.yul\":5159:5162   */\n      dup3\n        /* \"#utility.yul\":5152:5189   */\n      mstore\n        /* \"#utility.yul\":5077:5195   */\n      pop\n      pop\n      jump\t// out\n        /* \"#utility.yul\":5201:5310   */\n    tag_99:\n        /* \"#utility.yul\":5282:5303   */\n      tag_195\n        /* \"#utility.yul\":5297:5302   */\n      dup2\n        /* \"#utility.yul\":5282:5303   */\n      tag_90\n      jump\t// in\n    tag_195:\n        /* \"#utility.yul\":5277:5280   */\n      dup3\n        /* \"#utility.yul\":5270:5304   */\n      mstore\n        /* \"#utility.yul\":5201:5310   */\n      pop\n      pop\n      jump\t// out\n        /* \"#utility.yul\":5316:6261   */\n    tag_16:\n        /* \"#utility.yul\":5583:5587   */\n      0x00\n        /* \"#utility.yul\":5621:5624   */\n      0xc0\n        /* \"#utility.yul\":5610:5619   */\n      dup3\n        /* \"#utility.yul\":5606:5625   */\n      add\n        /* \"#utility.yul\":5598:5625   */\n      swap1\n      pop\n        /* \"#utility.yul\":5671:5680   */\n      dup2\n        /* \"#utility.yul\":5665:5669   */\n      dup2\n        /* \"#utility.yul\":5661:5681   */\n      sub\n        /* \"#utility.yul\":5657:5658   */\n      0x00\n        /* \"#utility.yul\":5646:5655   */\n      dup4\n        /* \"#utility.yul\":5642:5659   */\n      add\n        /* \"#utility.yul\":5635:5682   */\n      mstore\n        /* \"#utility.yul\":5699:5777   */\n      tag_197\n        /* \"#utility.yul\":5772:5776   */\n      dup2\n        /* \"#utility.yul\":5763:5769   */\n      dup10\n        /* \"#utility.yul\":5699:5777   */\n      tag_96\n      jump\t// in\n    tag_197:\n        /* \"#utility.yul\":5691:5777   */\n      swap1\n      pop\n        /* \"#utility.yul\":5824:5833   */\n      dup2\n        /* \"#utility.yul\":5818:5822   */\n      dup2\n        /* \"#utility.yul\":5814:5834   */\n      sub\n        /* \"#utility.yul\":5809:5811   */\n      0x20\n        /* \"#utility.yul\":5798:5807   */\n      dup4\n        /* \"#utility.yul\":5794:5812   */\n      add\n        /* \"#utility.yul\":5787:5835   */\n      mstore\n        /* \"#utility.yul\":5852:5930   */\n      tag_198\n        /* \"#utility.yul\":5925:5929   */\n      dup2\n        /* \"#utility.yul\":5916:5922   */\n      dup9\n        /* \"#utility.yul\":5852:5930   */\n      tag_96\n      jump\t// in\n    tag_198:\n        /* \"#utility.yul\":5844:5930   */\n      swap1\n      pop\n        /* \"#utility.yul\":5940:6012   */\n      tag_199\n        /* \"#utility.yul\":6008:6010   */\n      0x40\n        /* \"#utility.yul\":5997:6006   */\n      dup4\n        /* \"#utility.yul\":5993:6011   */\n      add\n        /* \"#utility.yul\":5984:5990   */\n      dup8\n        /* \"#utility.yul\":5940:6012   */\n      tag_98\n      jump\t// in\n    tag_199:\n        /* \"#utility.yul\":6022:6094   */\n      tag_200\n        /* \"#utility.yul\":6090:6092   */\n      0x60\n        /* \"#utility.yul\":6079:6088   */\n      dup4\n        /* \"#utility.yul\":6075:6093   */\n      add\n        /* \"#utility.yul\":6066:6072   */\n      dup7\n        /* \"#utility.yul\":6022:6094   */\n      tag_98\n      jump\t// in\n    tag_200:\n        /* \"#utility.yul\":6104:6177   */\n      tag_201\n        /* \"#utility.yul\":6172:6175   */\n      0x80\n        /* \"#utility.yul\":6161:6170   */\n      dup4\n        /* \"#utility.yul\":6157:6176   */\n      add\n        /* \"#utility.yul\":6148:6154   */\n      dup6\n        /* \"#utility.yul\":6104:6177   */\n      tag_98\n      jump\t// in\n    tag_201:\n        /* \"#utility.yul\":6187:6254   */\n      tag_202\n        /* \"#utility.yul\":6249:6252   */\n      0xa0\n        /* \"#utility.yul\":6238:6247   */\n      dup4\n        /* \"#utility.yul\":6234:6253   */\n      add\n        /* \"#utility.yul\":6225:6231   */\n      dup5\n        /* \"#utility.yul\":6187:6254   */\n      tag_99\n      jump\t// in\n    tag_202:\n        /* \"#utility.yul\":5316:6261   */\n      swap8\n      swap7\n      pop\n      pop\n      pop\n      pop\n      pop\n      pop\n      pop\n      jump\t// out\n        /* \"#utility.yul\":6267:6389   */\n    tag_100:\n        /* \"#utility.yul\":6340:6364   */\n      tag_204\n        /* \"#utility.yul\":6358:6363   */\n      dup2\n        /* \"#utility.yul\":6340:6364   */\n      tag_97\n      jump\t// in\n    tag_204:\n        /* \"#utility.yul\":6333:6338   */\n      dup2\n        /* \"#utility.yul\":6330:6365   */\n      eq\n        /* \"#utility.yul\":6320:6383   */\n      tag_205\n      jumpi\n        /* \"#utility.yul\":6379:6380   */\n      0x00\n        /* \"#utility.yul\":6376:6377   */\n      dup1\n        /* \"#utility.yul\":6369:6381   */\n      revert\n        /* \"#utility.yul\":6320:6383   */\n    tag_205:\n        /* \"#utility.yul\":6267:6389   */\n      pop\n      jump\t// out\n        /* \"#utility.yul\":6395:6534   */\n    tag_101:\n        /* \"#utility.yul\":6441:6446   */\n      0x00\n        /* \"#utility.yul\":6479:6485   */\n      dup2\n        /* \"#utility.yul\":6466:6486   */\n      calldataload\n        /* \"#utility.yul\":6457:6486   */\n      swap1\n      pop\n        /* \"#utility.yul\":6495:6528   */\n      tag_207\n        /* \"#utility.yul\":6522:6527   */\n      dup2\n        /* \"#utility.yul\":6495:6528   */\n      tag_100\n      jump\t// in\n    tag_207:\n        /* \"#utility.yul\":6395:6534   */\n      swap3\n      swap2\n      pop\n      pop\n      jump\t// out\n        /* \"#utility.yul\":6540:8277   */\n    tag_19:\n        /* \"#utility.yul\":6680:6686   */\n      0x00\n        /* \"#utility.yul\":6688:6694   */\n      dup1\n        /* \"#utility.yul\":6696:6702   */\n      0x00\n        /* \"#utility.yul\":6704:6710   */\n      dup1\n        /* \"#utility.yul\":6712:6718   */\n      0x00\n        /* \"#utility.yul\":6720:6726   */\n      dup1\n        /* \"#utility.yul\":6728:6734   */\n      0x00\n        /* \"#utility.yul\":6777:6780   */\n      0xe0\n        /* \"#utility.yul\":6765:6774   */\n      dup9\n        /* \"#utility.yul\":6756:6763   */\n      dup11\n        /* \"#utility.yul\":6752:6775   */\n      sub\n        /* \"#utility.yul\":6748:6781   */\n      slt\n        /* \"#utility.yul\":6745:6865   */\n      iszero\n      tag_209\n      jumpi\n        /* \"#utility.yul\":6784:6863   */\n      tag_210\n      tag_78\n      jump\t// in\n    tag_210:\n        /* \"#utility.yul\":6745:6865   */\n    tag_209:\n        /* \"#utility.yul\":6932:6933   */\n      0x00\n        /* \"#utility.yul\":6921:6930   */\n      dup9\n        /* \"#utility.yul\":6917:6934   */\n      add\n        /* \"#utility.yul\":6904:6935   */\n      calldataload\n        /* \"#utility.yul\":6962:6980   */\n      0xffffffffffffffff\n        /* \"#utility.yul\":6954:6960   */\n      dup2\n        /* \"#utility.yul\":6951:6981   */\n      gt\n        /* \"#utility.yul\":6948:7065   */\n      iszero\n      tag_211\n      jumpi\n        /* \"#utility.yul\":6984:7063   */\n      tag_212\n      tag_79\n      jump\t// in\n    tag_212:\n        /* \"#utility.yul\":6948:7065   */\n    tag_211:\n        /* \"#utility.yul\":7089:7152   */\n      tag_213\n        /* \"#utility.yul\":7144:7151   */\n      dup11\n        /* \"#utility.yul\":7135:7141   */\n      dup3\n        /* \"#utility.yul\":7124:7133   */\n      dup12\n        /* \"#utility.yul\":7120:7142   */\n      add\n        /* \"#utility.yul\":7089:7152   */\n      tag_89\n      jump\t// in\n    tag_213:\n        /* \"#utility.yul\":7079:7152   */\n      swap8\n      pop\n        /* \"#utility.yul\":6875:7162   */\n      pop\n        /* \"#utility.yul\":7229:7231   */\n      0x20\n        /* \"#utility.yul\":7218:7227   */\n      dup9\n        /* \"#utility.yul\":7214:7232   */\n      add\n        /* \"#utility.yul\":7201:7233   */\n      calldataload\n        /* \"#utility.yul\":7260:7278   */\n      0xffffffffffffffff\n        /* \"#utility.yul\":7252:7258   */\n      dup2\n        /* \"#utility.yul\":7249:7279   */\n      gt\n        /* \"#utility.yul\":7246:7363   */\n      iszero\n      tag_214\n      jumpi\n        /* \"#utility.yul\":7282:7361   */\n      tag_215\n      tag_79\n      jump\t// in\n    tag_215:\n        /* \"#utility.yul\":7246:7363   */\n    tag_214:\n        /* \"#utility.yul\":7387:7450   */\n      tag_216\n        /* \"#utility.yul\":7442:7449   */\n      dup11\n        /* \"#utility.yul\":7433:7439   */\n      dup3\n        /* \"#utility.yul\":7422:7431   */\n      dup12\n        /* \"#utility.yul\":7418:7440   */\n      add\n        /* \"#utility.yul\":7387:7450   */\n      tag_89\n      jump\t// in\n    tag_216:\n        /* \"#utility.yul\":7377:7450   */\n      swap7\n      pop\n        /* \"#utility.yul\":7172:7460   */\n      pop\n        /* \"#utility.yul\":7527:7529   */\n      0x40\n        /* \"#utility.yul\":7516:7525   */\n      dup9\n        /* \"#utility.yul\":7512:7530   */\n      add\n        /* \"#utility.yul\":7499:7531   */\n      calldataload\n        /* \"#utility.yul\":7558:7576   */\n      0xffffffffffffffff\n        /* \"#utility.yul\":7550:7556   */\n      dup2\n        /* \"#utility.yul\":7547:7577   */\n      gt\n        /* \"#utility.yul\":7544:7661   */\n      iszero\n      tag_217\n      jumpi\n        /* \"#utility.yul\":7580:7659   */\n      tag_218\n      tag_79\n      jump\t// in\n    tag_218:\n        /* \"#utility.yul\":7544:7661   */\n    tag_217:\n        /* \"#utility.yul\":7685:7748   */\n      tag_219\n        /* \"#utility.yul\":7740:7747   */\n      dup11\n        /* \"#utility.yul\":7731:7737   */\n      dup3\n        /* \"#utility.yul\":7720:7729   */\n      dup12\n        /* \"#utility.yul\":7716:7738   */\n      add\n        /* \"#utility.yul\":7685:7748   */\n      tag_89\n      jump\t// in\n    tag_219:\n        /* \"#utility.yul\":7675:7748   */\n      swap6\n      pop\n        /* \"#utility.yul\":7470:7758   */\n      pop\n        /* \"#utility.yul\":7797:7799   */\n      0x60\n        /* \"#utility.yul\":7823:7876   */\n      tag_220\n        /* \"#utility.yul\":7868:7875   */\n      dup11\n        /* \"#utility.yul\":7859:7865   */\n      dup3\n        /* \"#utility.yul\":7848:7857   */\n      dup12\n        /* \"#utility.yul\":7844:7866   */\n      add\n        /* \"#utility.yul\":7823:7876   */\n      tag_101\n      jump\t// in\n    tag_220:\n        /* \"#utility.yul\":7813:7876   */\n      swap5\n      pop\n        /* \"#utility.yul\":7768:7886   */\n      pop\n        /* \"#utility.yul\":7925:7928   */\n      0x80\n        /* \"#utility.yul\":7952:8005   */\n      tag_221\n        /* \"#utility.yul\":7997:8004   */\n      dup11\n        /* \"#utility.yul\":7988:7994   */\n      dup3\n        /* \"#utility.yul\":7977:7986   */\n      dup12\n        /* \"#utility.yul\":7973:7995   */\n      add\n        /* \"#utility.yul\":7952:8005   */\n      tag_101\n      jump\t// in\n    tag_221:\n        /* \"#utility.yul\":7942:8005   */\n      swap4\n      pop\n        /* \"#utility.yul\":7896:8015   */\n      pop\n        /* \"#utility.yul\":8054:8057   */\n      0xa0\n        /* \"#utility.yul\":8081:8134   */\n      tag_222\n        /* \"#utility.yul\":8126:8133   */\n      dup11\n        /* \"#utility.yul\":8117:8123   */\n      dup3\n        /* \"#utility.yul\":8106:8115   */\n      dup12\n        /* \"#utility.yul\":8102:8124   */\n      add\n        /* \"#utility.yul\":8081:8134   */\n      tag_101\n      jump\t// in\n    tag_222:\n        /* \"#utility.yul\":8071:8134   */\n      swap3\n      pop\n        /* \"#utility.yul\":8025:8144   */\n      pop\n        /* \"#utility.yul\":8183:8186   */\n      0xc0\n        /* \"#utility.yul\":8210:8260   */\n      tag_223\n        /* \"#utility.yul\":8252:8259   */\n      dup11\n        /* \"#utility.yul\":8243:8249   */\n      dup3\n        /* \"#utility.yul\":8232:8241   */\n      dup12\n        /* \"#utility.yul\":8228:8250   */\n      add\n        /* \"#utility.yul\":8210:8260   */\n      tag_92\n      jump\t// in\n    tag_223:\n        /* \"#utility.yul\":8200:8260   */\n      swap2\n      pop\n        /* \"#utility.yul\":8154:8270   */\n      pop\n        /* \"#utility.yul\":6540:8277   */\n      swap3\n      swap6\n      swap9\n      swap2\n      swap5\n      swap8\n      pop\n      swap3\n      swap6\n      pop\n      jump\t// out\n        /* \"#utility.yul\":8283:8409   */\n    tag_102:\n        /* \"#utility.yul\":8320:8327   */\n      0x00\n        /* \"#utility.yul\":8360:8402   */\n      0xffffffffffffffffffffffffffffffffffffffff\n        /* \"#utility.yul\":8353:8358   */\n      dup3\n        /* \"#utility.yul\":8349:8403   */\n      and\n        /* \"#utility.yul\":8338:8403   */\n      swap1\n      pop\n        /* \"#utility.yul\":8283:8409   */\n      swap2\n      swap1\n      pop\n      jump\t// out\n        /* \"#utility.yul\":8415:8511   */\n    tag_103:\n        /* \"#utility.yul\":8452:8459   */\n      0x00\n        /* \"#utility.yul\":8481:8505   */\n      tag_226\n        /* \"#utility.yul\":8499:8504   */\n      dup3\n        /* \"#utility.yul\":8481:8505   */\n      tag_102\n      jump\t// in\n    tag_226:\n        /* \"#utility.yul\":8470:8505   */\n      swap1\n      pop\n        /* \"#utility.yul\":8415:8511   */\n      swap2\n      swap1\n      pop\n      jump\t// out\n        /* \"#utility.yul\":8517:8635   */\n    tag_104:\n        /* \"#utility.yul\":8604:8628   */\n      tag_228\n        /* \"#utility.yul\":8622:8627   */\n      dup2\n        /* \"#utility.yul\":8604:8628   */\n      tag_103\n      jump\t// in\n    tag_228:\n        /* \"#utility.yul\":8599:8602   */\n      dup3\n        /* \"#utility.yul\":8592:8629   */\n      mstore\n        /* \"#utility.yul\":8517:8635   */\n      pop\n      pop\n      jump\t// out\n        /* \"#utility.yul\":8641:8863   */\n    tag_25:\n        /* \"#utility.yul\":8734:8738   */\n      0x00\n        /* \"#utility.yul\":8772:8774   */\n      0x20\n        /* \"#utility.yul\":8761:8770   */\n      dup3\n        /* \"#utility.yul\":8757:8775   */\n      add\n        /* \"#utility.yul\":8749:8775   */\n      swap1\n      pop\n        /* \"#utility.yul\":8785:8856   */\n      tag_230\n        /* \"#utility.yul\":8853:8854   */\n      0x00\n        /* \"#utility.yul\":8842:8851   */\n      dup4\n        /* \"#utility.yul\":8838:8855   */\n      add\n        /* \"#utility.yul\":8829:8835   */\n      dup5\n        /* \"#utility.yul\":8785:8856   */\n      tag_104\n      jump\t// in\n    tag_230:\n        /* \"#utility.yul\":8641:8863   */\n      swap3\n      swap2\n      pop\n      pop\n      jump\t// out\n        /* \"#utility.yul\":8869:9094   */\n    tag_105:\n        /* \"#utility.yul\":9009:9043   */\n      0x4f6e6c79207468652061646d696e2063616e20706572666f726d207468697320\n        /* \"#utility.yul\":9005:9006   */\n      0x00\n        /* \"#utility.yul\":8997:9003   */\n      dup3\n        /* \"#utility.yul\":8993:9007   */\n      add\n        /* \"#utility.yul\":8986:9044   */\n      mstore\n        /* \"#utility.yul\":9078:9086   */\n      0x616374696f6e0000000000000000000000000000000000000000000000000000\n        /* \"#utility.yul\":9073:9075   */\n      0x20\n        /* \"#utility.yul\":9065:9071   */\n      dup3\n        /* \"#utility.yul\":9061:9076   */\n      add\n        /* \"#utility.yul\":9054:9087   */\n      mstore\n        /* \"#utility.yul\":8869:9094   */\n      pop\n      jump\t// out\n        /* \"#utility.yul\":9100:9466   */\n    tag_106:\n        /* \"#utility.yul\":9242:9245   */\n      0x00\n        /* \"#utility.yul\":9263:9330   */\n      tag_233\n        /* \"#utility.yul\":9327:9329   */\n      0x26\n        /* \"#utility.yul\":9322:9325   */\n      dup4\n        /* \"#utility.yul\":9263:9330   */\n      tag_94\n      jump\t// in\n    tag_233:\n        /* \"#utility.yul\":9256:9330   */\n      swap2\n      pop\n        /* \"#utility.yul\":9339:9432   */\n      tag_234\n        /* \"#utility.yul\":9428:9431   */\n      dup3\n        /* \"#utility.yul\":9339:9432   */\n      tag_105\n      jump\t// in\n    tag_234:\n        /* \"#utility.yul\":9457:9459   */\n      0x40\n        /* \"#utility.yul\":9452:9455   */\n      dup3\n        /* \"#utility.yul\":9448:9460   */\n      add\n        /* \"#utility.yul\":9441:9460   */\n      swap1\n      pop\n        /* \"#utility.yul\":9100:9466   */\n      swap2\n      swap1\n      pop\n      jump\t// out\n        /* \"#utility.yul\":9472:9891   */\n    tag_29:\n        /* \"#utility.yul\":9638:9642   */\n      0x00\n        /* \"#utility.yul\":9676:9678   */\n      0x20\n        /* \"#utility.yul\":9665:9674   */\n      dup3\n        /* \"#utility.yul\":9661:9679   */\n      add\n        /* \"#utility.yul\":9653:9679   */\n      swap1\n      pop\n        /* \"#utility.yul\":9725:9734   */\n      dup2\n        /* \"#utility.yul\":9719:9723   */\n      dup2\n        /* \"#utility.yul\":9715:9735   */\n      sub\n        /* \"#utility.yul\":9711:9712   */\n      0x00\n        /* \"#utility.yul\":9700:9709   */\n      dup4\n        /* \"#utility.yul\":9696:9713   */\n      add\n        /* \"#utility.yul\":9689:9736   */\n      mstore\n        /* \"#utility.yul\":9753:9884   */\n      tag_236\n        /* \"#utility.yul\":9879:9883   */\n      dup2\n        /* \"#utility.yul\":9753:9884   */\n      tag_106\n      jump\t// in\n    tag_236:\n        /* \"#utility.yul\":9745:9884   */\n      swap1\n      pop\n        /* \"#utility.yul\":9472:9891   */\n      swap2\n      swap1\n      pop\n      jump\t// out\n        /* \"#utility.yul\":9897:10071   */\n    tag_107:\n        /* \"#utility.yul\":10037:10063   */\n      0x5472616e73616374696f6e207265717569726573204554480000000000000000\n        /* \"#utility.yul\":10033:10034   */\n      0x00\n        /* \"#utility.yul\":10025:10031   */\n      dup3\n        /* \"#utility.yul\":10021:10035   */\n      add\n        /* \"#utility.yul\":10014:10064   */\n      mstore\n        /* \"#utility.yul\":9897:10071   */\n      pop\n      jump\t// out\n        /* \"#utility.yul\":10077:10443   */\n    tag_108:\n        /* \"#utility.yul\":10219:10222   */\n      0x00\n        /* \"#utility.yul\":10240:10307   */\n      tag_239\n        /* \"#utility.yul\":10304:10306   */\n      0x18\n        /* \"#utility.yul\":10299:10302   */\n      dup4\n        /* \"#utility.yul\":10240:10307   */\n      tag_94\n      jump\t// in\n    tag_239:\n        /* \"#utility.yul\":10233:10307   */\n      swap2\n      pop\n        /* \"#utility.yul\":10316:10409   */\n      tag_240\n        /* \"#utility.yul\":10405:10408   */\n      dup3\n        /* \"#utility.yul\":10316:10409   */\n      tag_107\n      jump\t// in\n    tag_240:\n        /* \"#utility.yul\":10434:10436   */\n      0x20\n        /* \"#utility.yul\":10429:10432   */\n      dup3\n        /* \"#utility.yul\":10425:10437   */\n      add\n        /* \"#utility.yul\":10418:10437   */\n      swap1\n      pop\n        /* \"#utility.yul\":10077:10443   */\n      swap2\n      swap1\n      pop\n      jump\t// out\n        /* \"#utility.yul\":10449:10868   */\n    tag_33:\n        /* \"#utility.yul\":10615:10619   */\n      0x00\n        /* \"#utility.yul\":10653:10655   */\n      0x20\n        /* \"#utility.yul\":10642:10651   */\n      dup3\n        /* \"#utility.yul\":10638:10656   */\n      add\n        /* \"#utility.yul\":10630:10656   */\n      swap1\n      pop\n        /* \"#utility.yul\":10702:10711   */\n      dup2\n        /* \"#utility.yul\":10696:10700   */\n      dup2\n        /* \"#utility.yul\":10692:10712   */\n      sub\n        /* \"#utility.yul\":10688:10689   */\n      0x00\n        /* \"#utility.yul\":10677:10686   */\n      dup4\n        /* \"#utility.yul\":10673:10690   */\n      add\n        /* \"#utility.yul\":10666:10713   */\n      mstore\n        /* \"#utility.yul\":10730:10861   */\n      tag_242\n        /* \"#utility.yul\":10856:10860   */\n      dup2\n        /* \"#utility.yul\":10730:10861   */\n      tag_108\n      jump\t// in\n    tag_242:\n        /* \"#utility.yul\":10722:10861   */\n      swap1\n      pop\n        /* \"#utility.yul\":10449:10868   */\n      swap2\n      swap1\n      pop\n      jump\t// out\n        /* \"#utility.yul\":10874:11022   */\n    tag_109:\n        /* \"#utility.yul\":10976:10987   */\n      0x00\n        /* \"#utility.yul\":11013:11016   */\n      dup2\n        /* \"#utility.yul\":10998:11016   */\n      swap1\n      pop\n        /* \"#utility.yul\":10874:11022   */\n      swap3\n      swap2\n      pop\n      pop\n      jump\t// out\n        /* \"#utility.yul\":11028:11418   */\n    tag_110:\n        /* \"#utility.yul\":11134:11137   */\n      0x00\n        /* \"#utility.yul\":11162:11201   */\n      tag_245\n        /* \"#utility.yul\":11195:11200   */\n      dup3\n        /* \"#utility.yul\":11162:11201   */\n      tag_93\n      jump\t// in\n    tag_245:\n        /* \"#utility.yul\":11217:11306   */\n      tag_246\n        /* \"#utility.yul\":11299:11305   */\n      dup2\n        /* \"#utility.yul\":11294:11297   */\n      dup6\n        /* \"#utility.yul\":11217:11306   */\n      tag_109\n      jump\t// in\n    tag_246:\n        /* \"#utility.yul\":11210:11306   */\n      swap4\n      pop\n        /* \"#utility.yul\":11315:11380   */\n      tag_247\n        /* \"#utility.yul\":11373:11379   */\n      dup2\n        /* \"#utility.yul\":11368:11371   */\n      dup6\n        /* \"#utility.yul\":11361:11365   */\n      0x20\n        /* \"#utility.yul\":11354:11359   */\n      dup7\n        /* \"#utility.yul\":11350:11366   */\n      add\n        /* \"#utility.yul\":11315:11380   */\n      tag_95\n      jump\t// in\n    tag_247:\n        /* \"#utility.yul\":11405:11411   */\n      dup1\n        /* \"#utility.yul\":11400:11403   */\n      dup5\n        /* \"#utility.yul\":11396:11412   */\n      add\n        /* \"#utility.yul\":11389:11412   */\n      swap2\n      pop\n        /* \"#utility.yul\":11138:11418   */\n      pop\n        /* \"#utility.yul\":11028:11418   */\n      swap3\n      swap2\n      pop\n      pop\n      jump\t// out\n        /* \"#utility.yul\":11424:11699   */\n    tag_35:\n        /* \"#utility.yul\":11556:11559   */\n      0x00\n        /* \"#utility.yul\":11578:11673   */\n      tag_249\n        /* \"#utility.yul\":11669:11672   */\n      dup3\n        /* \"#utility.yul\":11660:11666   */\n      dup5\n        /* \"#utility.yul\":11578:11673   */\n      tag_110\n      jump\t// in\n    tag_249:\n        /* \"#utility.yul\":11571:11673   */\n      swap2\n      pop\n        /* \"#utility.yul\":11690:11693   */\n      dup2\n        /* \"#utility.yul\":11683:11693   */\n      swap1\n      pop\n        /* \"#utility.yul\":11424:11699   */\n      swap3\n      swap2\n      pop\n      pop\n      jump\t// out\n        /* \"#utility.yul\":11705:11885   */\n    tag_111:\n        /* \"#utility.yul\":11753:11830   */\n      0x4e487b7100000000000000000000000000000000000000000000000000000000\n        /* \"#utility.yul\":11750:11751   */\n      0x00\n        /* \"#utility.yul\":11743:11831   */\n      mstore\n        /* \"#utility.yul\":11850:11854   */\n      0x22\n        /* \"#utility.yul\":11847:11848   */\n      0x04\n        /* \"#utility.yul\":11840:11855   */\n      mstore\n        /* \"#utility.yul\":11874:11878   */\n      0x24\n        /* \"#utility.yul\":11871:11872   */\n      0x00\n        /* \"#utility.yul\":11864:11879   */\n      revert\n        /* \"#utility.yul\":11891:12211   */\n    tag_37:\n        /* \"#utility.yul\":11935:11941   */\n      0x00\n        /* \"#utility.yul\":11972:11973   */\n      0x02\n        /* \"#utility.yul\":11966:11970   */\n      dup3\n        /* \"#utility.yul\":11962:11974   */\n      div\n        /* \"#utility.yul\":11952:11974   */\n      swap1\n      pop\n        /* \"#utility.yul\":12019:12020   */\n      0x01\n        /* \"#utility.yul\":12013:12017   */\n      dup3\n        /* \"#utility.yul\":12009:12021   */\n      and\n        /* \"#utility.yul\":12040:12058   */\n      dup1\n        /* \"#utility.yul\":12030:12111   */\n      tag_252\n      jumpi\n        /* \"#utility.yul\":12096:12100   */\n      0x7f\n        /* \"#utility.yul\":12088:12094   */\n      dup3\n        /* \"#utility.yul\":12084:12101   */\n      and\n        /* \"#utility.yul\":12074:12101   */\n      swap2\n      pop\n        /* \"#utility.yul\":12030:12111   */\n    tag_252:\n        /* \"#utility.yul\":12158:12160   */\n      0x20\n        /* \"#utility.yul\":12150:12156   */\n      dup3\n        /* \"#utility.yul\":12147:12161   */\n      lt\n        /* \"#utility.yul\":12127:12145   */\n      dup2\n        /* \"#utility.yul\":12124:12162   */\n      sub\n        /* \"#utility.yul\":12121:12205   */\n      tag_253\n      jumpi\n        /* \"#utility.yul\":12177:12195   */\n      tag_254\n      tag_111\n      jump\t// in\n    tag_254:\n        /* \"#utility.yul\":12121:12205   */\n    tag_253:\n        /* \"#utility.yul\":11942:12211   */\n      pop\n        /* \"#utility.yul\":11891:12211   */\n      swap2\n      swap1\n      pop\n      jump\t// out\n        /* \"#utility.yul\":12217:12393   */\n    tag_112:\n        /* \"#utility.yul\":12357:12385   */\n      0x50617373706f727420494420646f6573206e6f74206578697374000000000000\n        /* \"#utility.yul\":12353:12354   */\n      0x00\n        /* \"#utility.yul\":12345:12351   */\n      dup3\n        /* \"#utility.yul\":12341:12355   */\n      add\n        /* \"#utility.yul\":12334:12386   */\n      mstore\n        /* \"#utility.yul\":12217:12393   */\n      pop\n      jump\t// out\n        /* \"#utility.yul\":12399:12765   */\n    tag_113:\n        /* \"#utility.yul\":12541:12544   */\n      0x00\n        /* \"#utility.yul\":12562:12629   */\n      tag_257\n        /* \"#utility.yul\":12626:12628   */\n      0x1a\n        /* \"#utility.yul\":12621:12624   */\n      dup4\n        /* \"#utility.yul\":12562:12629   */\n      tag_94\n      jump\t// in\n    tag_257:\n        /* \"#utility.yul\":12555:12629   */\n      swap2\n      pop\n        /* \"#utility.yul\":12638:12731   */\n      tag_258\n        /* \"#utility.yul\":12727:12730   */\n      dup3\n        /* \"#utility.yul\":12638:12731   */\n      tag_112\n      jump\t// in\n    tag_258:\n        /* \"#utility.yul\":12756:12758   */\n      0x20\n        /* \"#utility.yul\":12751:12754   */\n      dup3\n        /* \"#utility.yul\":12747:12759   */\n      add\n        /* \"#utility.yul\":12740:12759   */\n      swap1\n      pop\n        /* \"#utility.yul\":12399:12765   */\n      swap2\n      swap1\n      pop\n      jump\t// out\n        /* \"#utility.yul\":12771:13190   */\n    tag_40:\n        /* \"#utility.yul\":12937:12941   */\n      0x00\n        /* \"#utility.yul\":12975:12977   */\n      0x20\n        /* \"#utility.yul\":12964:12973   */\n      dup3\n        /* \"#utility.yul\":12960:12978   */\n      add\n        /* \"#utility.yul\":12952:12978   */\n      swap1\n      pop\n        /* \"#utility.yul\":13024:13033   */\n      dup2\n        /* \"#utility.yul\":13018:13022   */\n      dup2\n        /* \"#utility.yul\":13014:13034   */\n      sub\n        /* \"#utility.yul\":13010:13011   */\n      0x00\n        /* \"#utility.yul\":12999:13008   */\n      dup4\n        /* \"#utility.yul\":12995:13012   */\n      add\n        /* \"#utility.yul\":12988:13035   */\n      mstore\n        /* \"#utility.yul\":13052:13183   */\n      tag_260\n        /* \"#utility.yul\":13178:13182   */\n      dup2\n        /* \"#utility.yul\":13052:13183   */\n      tag_113\n      jump\t// in\n    tag_260:\n        /* \"#utility.yul\":13044:13183   */\n      swap1\n      pop\n        /* \"#utility.yul\":12771:13190   */\n      swap2\n      swap1\n      pop\n      jump\t// out\n        /* \"#utility.yul\":13196:13607   */\n    tag_43:\n        /* \"#utility.yul\":13331:13335   */\n      0x00\n        /* \"#utility.yul\":13369:13371   */\n      0x40\n        /* \"#utility.yul\":13358:13367   */\n      dup3\n        /* \"#utility.yul\":13354:13372   */\n      add\n        /* \"#utility.yul\":13346:13372   */\n      swap1\n      pop\n        /* \"#utility.yul\":13418:13427   */\n      dup2\n        /* \"#utility.yul\":13412:13416   */\n      dup2\n        /* \"#utility.yul\":13408:13428   */\n      sub\n        /* \"#utility.yul\":13404:13405   */\n      0x00\n        /* \"#utility.yul\":13393:13402   */\n      dup4\n        /* \"#utility.yul\":13389:13406   */\n      add\n        /* \"#utility.yul\":13382:13429   */\n      mstore\n        /* \"#utility.yul\":13446:13524   */\n      tag_262\n        /* \"#utility.yul\":13519:13523   */\n      dup2\n        /* \"#utility.yul\":13510:13516   */\n      dup6\n        /* \"#utility.yul\":13446:13524   */\n      tag_96\n      jump\t// in\n    tag_262:\n        /* \"#utility.yul\":13438:13524   */\n      swap1\n      pop\n        /* \"#utility.yul\":13534:13600   */\n      tag_263\n        /* \"#utility.yul\":13596:13598   */\n      0x20\n        /* \"#utility.yul\":13585:13594   */\n      dup4\n        /* \"#utility.yul\":13581:13599   */\n      add\n        /* \"#utility.yul\":13572:13578   */\n      dup5\n        /* \"#utility.yul\":13534:13600   */\n      tag_99\n      jump\t// in\n    tag_263:\n        /* \"#utility.yul\":13196:13607   */\n      swap4\n      swap3\n      pop\n      pop\n      pop\n      jump\t// out\n        /* \"#utility.yul\":13613:13789   */\n    tag_114:\n        /* \"#utility.yul\":13753:13781   */\n      0x50617373706f727420494420616c726561647920657869737473000000000000\n        /* \"#utility.yul\":13749:13750   */\n      0x00\n        /* \"#utility.yul\":13741:13747   */\n      dup3\n        /* \"#utility.yul\":13737:13751   */\n      add\n        /* \"#utility.yul\":13730:13782   */\n      mstore\n        /* \"#utility.yul\":13613:13789   */\n      pop\n      jump\t// out\n        /* \"#utility.yul\":13795:14161   */\n    tag_115:\n        /* \"#utility.yul\":13937:13940   */\n      0x00\n        /* \"#utility.yul\":13958:14025   */\n      tag_266\n        /* \"#utility.yul\":14022:14024   */\n      0x1a\n        /* \"#utility.yul\":14017:14020   */\n      dup4\n        /* \"#utility.yul\":13958:14025   */\n      tag_94\n      jump\t// in\n    tag_266:\n        /* \"#utility.yul\":13951:14025   */\n      swap2\n      pop\n        /* \"#utility.yul\":14034:14127   */\n      tag_267\n        /* \"#utility.yul\":14123:14126   */\n      dup3\n        /* \"#utility.yul\":14034:14127   */\n      tag_114\n      jump\t// in\n    tag_267:\n        /* \"#utility.yul\":14152:14154   */\n      0x20\n        /* \"#utility.yul\":14147:14150   */\n      dup3\n        /* \"#utility.yul\":14143:14155   */\n      add\n        /* \"#utility.yul\":14136:14155   */\n      swap1\n      pop\n        /* \"#utility.yul\":13795:14161   */\n      swap2\n      swap1\n      pop\n      jump\t// out\n        /* \"#utility.yul\":14167:14586   */\n    tag_70:\n        /* \"#utility.yul\":14333:14337   */\n      0x00\n        /* \"#utility.yul\":14371:14373   */\n      0x20\n        /* \"#utility.yul\":14360:14369   */\n      dup3\n        /* \"#utility.yul\":14356:14374   */\n      add\n        /* \"#utility.yul\":14348:14374   */\n      swap1\n      pop\n        /* \"#utility.yul\":14420:14429   */\n      dup2\n        /* \"#utility.yul\":14414:14418   */\n      dup2\n        /* \"#utility.yul\":14410:14430   */\n      sub\n        /* \"#utility.yul\":14406:14407   */\n      0x00\n        /* \"#utility.yul\":14395:14404   */\n      dup4\n        /* \"#utility.yul\":14391:14408   */\n      add\n        /* \"#utility.yul\":14384:14431   */\n      mstore\n        /* \"#utility.yul\":14448:14579   */\n      tag_269\n        /* \"#utility.yul\":14574:14578   */\n      dup2\n        /* \"#utility.yul\":14448:14579   */\n      tag_115\n      jump\t// in\n    tag_269:\n        /* \"#utility.yul\":14440:14579   */\n      swap1\n      pop\n        /* \"#utility.yul\":14167:14586   */\n      swap2\n      swap1\n      pop\n      jump\t// out\n        /* \"#utility.yul\":14592:14733   */\n    tag_116:\n        /* \"#utility.yul\":14641:14645   */\n      0x00\n        /* \"#utility.yul\":14664:14667   */\n      dup2\n        /* \"#utility.yul\":14656:14667   */\n      swap1\n      pop\n        /* \"#utility.yul\":14687:14690   */\n      dup2\n        /* \"#utility.yul\":14684:14685   */\n      0x00\n        /* \"#utility.yul\":14677:14691   */\n      mstore\n        /* \"#utility.yul\":14721:14725   */\n      0x20\n        /* \"#utility.yul\":14718:14719   */\n      0x00\n        /* \"#utility.yul\":14708:14726   */\n      keccak256\n        /* \"#utility.yul\":14700:14726   */\n      swap1\n      pop\n        /* \"#utility.yul\":14592:14733   */\n      swap2\n      swap1\n      pop\n      jump\t// out\n        /* \"#utility.yul\":14739:14832   */\n    tag_117:\n        /* \"#utility.yul\":14776:14782   */\n      0x00\n        /* \"#utility.yul\":14823:14825   */\n      0x20\n        /* \"#utility.yul\":14818:14820   */\n      0x1f\n        /* \"#utility.yul\":14811:14816   */\n      dup4\n        /* \"#utility.yul\":14807:14821   */\n      add\n        /* \"#utility.yul\":14803:14826   */\n      div\n        /* \"#utility.yul\":14793:14826   */\n      swap1\n      pop\n        /* \"#utility.yul\":14739:14832   */\n      swap2\n      swap1\n      pop\n      jump\t// out\n        /* \"#utility.yul\":14838:14945   */\n    tag_118:\n        /* \"#utility.yul\":14882:14890   */\n      0x00\n        /* \"#utility.yul\":14932:14937   */\n      dup3\n        /* \"#utility.yul\":14926:14930   */\n      dup3\n        /* \"#utility.yul\":14922:14938   */\n      shl\n        /* \"#utility.yul\":14901:14938   */\n      swap1\n      pop\n        /* \"#utility.yul\":14838:14945   */\n      swap3\n      swap2\n      pop\n      pop\n      jump\t// out\n        /* \"#utility.yul\":14951:15344   */\n    tag_119:\n        /* \"#utility.yul\":15020:15026   */\n      0x00\n        /* \"#utility.yul\":15070:15071   */\n      0x08\n        /* \"#utility.yul\":15058:15068   */\n      dup4\n        /* \"#utility.yul\":15054:15072   */\n      mul\n        /* \"#utility.yul\":15093:15190   */\n      tag_274\n        /* \"#utility.yul\":15123:15189   */\n      0xffffffffffffffffffffffffffffffffffffffffffffffffffffffffffffffff\n        /* \"#utility.yul\":15112:15121   */\n      dup3\n        /* \"#utility.yul\":15093:15190   */\n      tag_118\n      jump\t// in\n    tag_274:\n        /* \"#utility.yul\":15211:15250   */\n      tag_275\n        /* \"#utility.yul\":15241:15249   */\n      dup7\n        /* \"#utility.yul\":15230:15239   */\n      dup4\n        /* \"#utility.yul\":15211:15250   */\n      tag_118\n      jump\t// in\n    tag_275:\n        /* \"#utility.yul\":15199:15250   */\n      swap6\n      pop\n        /* \"#utility.yul\":15283:15287   */\n      dup1\n        /* \"#utility.yul\":15279:15288   */\n      not\n        /* \"#utility.yul\":15272:15277   */\n      dup5\n        /* \"#utility.yul\":15268:15289   */\n      and\n        /* \"#utility.yul\":15259:15289   */\n      swap4\n      pop\n        /* \"#utility.yul\":15332:15336   */\n      dup1\n        /* \"#utility.yul\":15322:15330   */\n      dup7\n        /* \"#utility.yul\":15318:15337   */\n      and\n        /* \"#utility.yul\":15311:15316   */\n      dup5\n        /* \"#utility.yul\":15308:15338   */\n      or\n        /* \"#utility.yul\":15298:15338   */\n      swap3\n      pop\n        /* \"#utility.yul\":15027:15344   */\n      pop\n      pop\n        /* \"#utility.yul\":14951:15344   */\n      swap4\n      swap3\n      pop\n      pop\n      pop\n      jump\t// out\n        /* \"#utility.yul\":15350:15410   */\n    tag_120:\n        /* \"#utility.yul\":15378:15381   */\n      0x00\n        /* \"#utility.yul\":15399:15404   */\n      dup2\n        /* \"#utility.yul\":15392:15404   */\n      swap1\n      pop\n        /* \"#utility.yul\":15350:15410   */\n      swap2\n      swap1\n      pop\n      jump\t// out\n        /* \"#utility.yul\":15416:15558   */\n    tag_121:\n        /* \"#utility.yul\":15466:15475   */\n      0x00\n        /* \"#utility.yul\":15499:15552   */\n      tag_278\n        /* \"#utility.yul\":15517:15551   */\n      tag_279\n        /* \"#utility.yul\":15526:15550   */\n      tag_280\n        /* \"#utility.yul\":15544:15549   */\n      dup5\n        /* \"#utility.yul\":15526:15550   */\n      tag_97\n      jump\t// in\n    tag_280:\n        /* \"#utility.yul\":15517:15551   */\n      tag_120\n      jump\t// in\n    tag_279:\n        /* \"#utility.yul\":15499:15552   */\n      tag_97\n      jump\t// in\n    tag_278:\n        /* \"#utility.yul\":15486:15552   */\n      swap1\n      pop\n        /* \"#utility.yul\":15416:15558   */\n      swap2\n      swap1\n      pop\n      jump\t// out\n        /* \"#utility.yul\":15564:15639   */\n    tag_122:\n        /* \"#utility.yul\":15607:15610   */\n      0x00\n        /* \"#utility.yul\":15628:15633   */\n      dup2\n        /* \"#utility.yul\":15621:15633   */\n      swap1\n      pop\n        /* \"#utility.yul\":15564:15639   */\n      swap2\n      swap1\n      pop\n      jump\t// out\n        /* \"#utility.yul\":15645:15914   */\n    tag_123:\n        /* \"#utility.yul\":15755:15794   */\n      tag_283\n        /* \"#utility.yul\":15786:15793   */\n      dup4\n        /* \"#utility.yul\":15755:15794   */\n      tag_121\n      jump\t// in\n    tag_283:\n        /* \"#utility.yul\":15816:15907   */\n      tag_284\n        /* \"#utility.yul\":15865:15906   */\n      tag_285\n        /* \"#utility.yul\":15889:15905   */\n      dup3\n        /* \"#utility.yul\":15865:15906   */\n      tag_122\n      jump\t// in\n    tag_285:\n        /* \"#utility.yul\":15857:15863   */\n      dup5\n        /* \"#utility.yul\":15850:15854   */\n      dup5\n        /* \"#utility.yul\":15844:15855   */\n      sload\n        /* \"#utility.yul\":15816:15907   */\n      tag_119\n      jump\t// in\n    tag_284:\n        /* \"#utility.yul\":15810:15814   */\n      dup3\n        /* \"#utility.yul\":15803:15908   */\n      sstore\n        /* \"#utility.yul\":15721:15914   */\n      pop\n        /* \"#utility.yul\":15645:15914   */\n      pop\n      pop\n      pop\n      jump\t// out\n        /* \"#utility.yul\":15920:15993   */\n    tag_124:\n        /* \"#utility.yul\":15965:15968   */\n      0x00\n        /* \"#utility.yul\":15920:15993   */\n      swap1\n      jump\t// out\n        /* \"#utility.yul\":15999:16188   */\n    tag_125:\n        /* \"#utility.yul\":16076:16108   */\n      tag_288\n      tag_124\n      jump\t// in\n    tag_288:\n        /* \"#utility.yul\":16117:16182   */\n      tag_289\n        /* \"#utility.yul\":16175:16181   */\n      dup2\n        /* \"#utility.yul\":16167:16173   */\n      dup5\n        /* \"#utility.yul\":16161:16165   */\n      dup5\n        /* \"#utility.yul\":16117:16182   */\n      tag_123\n      jump\t// in\n    tag_289:\n        /* \"#utility.yul\":16052:16188   */\n      pop\n        /* \"#utility.yul\":15999:16188   */\n      pop\n      pop\n      jump\t// out\n        /* \"#utility.yul\":16194:16380   */\n    tag_126:\n        /* \"#utility.yul\":16254:16374   */\n    tag_291:\n        /* \"#utility.yul\":16271:16274   */\n      dup2\n        /* \"#utility.yul\":16264:16269   */\n      dup2\n        /* \"#utility.yul\":16261:16275   */\n      lt\n        /* \"#utility.yul\":16254:16374   */\n      iszero\n      tag_293\n      jumpi\n        /* \"#utility.yul\":16325:16364   */\n      tag_294\n        /* \"#utility.yul\":16362:16363   */\n      0x00\n        /* \"#utility.yul\":16355:16360   */\n      dup3\n        /* \"#utility.yul\":16325:16364   */\n      tag_125\n      jump\t// in\n    tag_294:\n        /* \"#utility.yul\":16298:16299   */\n      0x01\n        /* \"#utility.yul\":16291:16296   */\n      dup2\n        /* \"#utility.yul\":16287:16300   */\n      add\n        /* \"#utility.yul\":16278:16300   */\n      swap1\n      pop\n        /* \"#utility.yul\":16254:16374   */\n      jump(tag_291)\n    tag_293:\n        /* \"#utility.yul\":16194:16380   */\n      pop\n      pop\n      jump\t// out\n        /* \"#utility.yul\":16386:16929   */\n    tag_127:\n        /* \"#utility.yul\":16487:16489   */\n      0x1f\n        /* \"#utility.yul\":16482:16485   */\n      dup3\n        /* \"#utility.yul\":16479:16490   */\n      gt\n        /* \"#utility.yul\":16476:16922   */\n      iszero\n      tag_296\n      jumpi\n        /* \"#utility.yul\":16521:16559   */\n      tag_297\n        /* \"#utility.yul\":16553:16558   */\n      dup2\n        /* \"#utility.yul\":16521:16559   */\n      tag_116\n      jump\t// in\n    tag_297:\n        /* \"#utility.yul\":16605:16634   */\n      tag_298\n        /* \"#utility.yul\":16623:16633   */\n      dup5\n        /* \"#utility.yul\":16605:16634   */\n      tag_117\n      jump\t// in\n    tag_298:\n        /* \"#utility.yul\":16595:16603   */\n      dup2\n        /* \"#utility.yul\":16591:16635   */\n      add\n        /* \"#utility.yul\":16788:16790   */\n      0x20\n        /* \"#utility.yul\":16776:16786   */\n      dup6\n        /* \"#utility.yul\":16773:16791   */\n      lt\n        /* \"#utility.yul\":16770:16819   */\n      iszero\n      tag_299\n      jumpi\n        /* \"#utility.yul\":16809:16817   */\n      dup2\n        /* \"#utility.yul\":16794:16817   */\n      swap1\n      pop\n        /* \"#utility.yul\":16770:16819   */\n    tag_299:\n        /* \"#utility.yul\":16832:16912   */\n      tag_300\n        /* \"#utility.yul\":16888:16910   */\n      tag_301\n        /* \"#utility.yul\":16906:16909   */\n      dup6\n        /* \"#utility.yul\":16888:16910   */\n      tag_117\n      jump\t// in\n    tag_301:\n        /* \"#utility.yul\":16878:16886   */\n      dup4\n        /* \"#utility.yul\":16874:16911   */\n      add\n        /* \"#utility.yul\":16861:16872   */\n      dup3\n        /* \"#utility.yul\":16832:16912   */\n      tag_126\n      jump\t// in\n    tag_300:\n        /* \"#utility.yul\":16491:16922   */\n      pop\n      pop\n        /* \"#utility.yul\":16476:16922   */\n    tag_296:\n        /* \"#utility.yul\":16386:16929   */\n      pop\n      pop\n      pop\n      jump\t// out\n        /* \"#utility.yul\":16935:17052   */\n    tag_128:\n        /* \"#utility.yul\":16989:16997   */\n      0x00\n        /* \"#utility.yul\":17039:17044   */\n      dup3\n        /* \"#utility.yul\":17033:17037   */\n      dup3\n        /* \"#utility.yul\":17029:17045   */\n      shr\n        /* \"#utility.yul\":17008:17045   */\n      swap1\n      pop\n        /* \"#utility.yul\":16935:17052   */\n      swap3\n      swap2\n      pop\n      pop\n      jump\t// out\n        /* \"#utility.yul\":17058:17227   */\n    tag_129:\n        /* \"#utility.yul\":17102:17108   */\n      0x00\n        /* \"#utility.yul\":17135:17186   */\n      tag_304\n        /* \"#utility.yul\":17183:17184   */\n      0x00\n        /* \"#utility.yul\":17179:17185   */\n      not\n        /* \"#utility.yul\":17171:17176   */\n      dup5\n        /* \"#utility.yul\":17168:17169   */\n      0x08\n        /* \"#utility.yul\":17164:17177   */\n      mul\n        /* \"#utility.yul\":17135:17186   */\n      tag_128\n      jump\t// in\n    tag_304:\n        /* \"#utility.yul\":17131:17187   */\n      not\n        /* \"#utility.yul\":17216:17220   */\n      dup1\n        /* \"#utility.yul\":17210:17214   */\n      dup4\n        /* \"#utility.yul\":17206:17221   */\n      and\n        /* \"#utility.yul\":17196:17221   */\n      swap2\n      pop\n        /* \"#utility.yul\":17109:17227   */\n      pop\n        /* \"#utility.yul\":17058:17227   */\n      swap3\n      swap2\n      pop\n      pop\n      jump\t// out\n        /* \"#utility.yul\":17232:17527   */\n    tag_130:\n        /* \"#utility.yul\":17308:17312   */\n      0x00\n        /* \"#utility.yul\":17454:17483   */\n      tag_306\n        /* \"#utility.yul\":17479:17482   */\n      dup4\n        /* \"#utility.yul\":17473:17477   */\n      dup4\n        /* \"#utility.yul\":17454:17483   */\n      tag_129\n      jump\t// in\n    tag_306:\n        /* \"#utility.yul\":17446:17483   */\n      swap2\n      pop\n        /* \"#utility.yul\":17516:17519   */\n      dup3\n        /* \"#utility.yul\":17513:17514   */\n      0x02\n        /* \"#utility.yul\":17509:17520   */\n      mul\n        /* \"#utility.yul\":17503:17507   */\n      dup3\n        /* \"#utility.yul\":17500:17521   */\n      or\n        /* \"#utility.yul\":17492:17521   */\n      swap1\n      pop\n        /* \"#utility.yul\":17232:17527   */\n      swap3\n      swap2\n      pop\n      pop\n      jump\t// out\n        /* \"#utility.yul\":17532:18927   */\n    tag_73:\n        /* \"#utility.yul\":17649:17686   */\n      tag_308\n        /* \"#utility.yul\":17682:17685   */\n      dup3\n        /* \"#utility.yul\":17649:17686   */\n      tag_93\n      jump\t// in\n    tag_308:\n        /* \"#utility.yul\":17751:17769   */\n      0xffffffffffffffff\n        /* \"#utility.yul\":17743:17749   */\n      dup2\n        /* \"#utility.yul\":17740:17770   */\n      gt\n        /* \"#utility.yul\":17737:17793   */\n      iszero\n      tag_309\n      jumpi\n        /* \"#utility.yul\":17773:17791   */\n      tag_310\n      tag_83\n      jump\t// in\n    tag_310:\n        /* \"#utility.yul\":17737:17793   */\n    tag_309:\n        /* \"#utility.yul\":17817:17855   */\n      tag_311\n        /* \"#utility.yul\":17849:17853   */\n      dup3\n        /* \"#utility.yul\":17843:17854   */\n      sload\n        /* \"#utility.yul\":17817:17855   */\n      tag_37\n      jump\t// in\n    tag_311:\n        /* \"#utility.yul\":17902:17969   */\n      tag_312\n        /* \"#utility.yul\":17962:17968   */\n      dup3\n        /* \"#utility.yul\":17954:17960   */\n      dup3\n        /* \"#utility.yul\":17948:17952   */\n      dup6\n        /* \"#utility.yul\":17902:17969   */\n      tag_127\n      jump\t// in\n    tag_312:\n        /* \"#utility.yul\":17996:17997   */\n      0x00\n        /* \"#utility.yul\":18020:18024   */\n      0x20\n        /* \"#utility.yul\":18007:18024   */\n      swap1\n      pop\n        /* \"#utility.yul\":18052:18054   */\n      0x1f\n        /* \"#utility.yul\":18044:18050   */\n      dup4\n        /* \"#utility.yul\":18041:18055   */\n      gt\n        /* \"#utility.yul\":18069:18070   */\n      0x01\n        /* \"#utility.yul\":18064:18682   */\n      dup2\n      eq\n      tag_314\n      jumpi\n        /* \"#utility.yul\":18726:18727   */\n      0x00\n        /* \"#utility.yul\":18743:18749   */\n      dup5\n        /* \"#utility.yul\":18740:18817   */\n      iszero\n      tag_315\n      jumpi\n        /* \"#utility.yul\":18792:18801   */\n      dup3\n        /* \"#utility.yul\":18787:18790   */\n      dup8\n        /* \"#utility.yul\":18783:18802   */\n      add\n        /* \"#utility.yul\":18777:18803   */\n      mload\n        /* \"#utility.yul\":18768:18803   */\n      swap1\n      pop\n        /* \"#utility.yul\":18740:18817   */\n    tag_315:\n        /* \"#utility.yul\":18843:18910   */\n      tag_316\n        /* \"#utility.yul\":18903:18909   */\n      dup6\n        /* \"#utility.yul\":18896:18901   */\n      dup3\n        /* \"#utility.yul\":18843:18910   */\n      tag_130\n      jump\t// in\n    tag_316:\n        /* \"#utility.yul\":18837:18841   */\n      dup7\n        /* \"#utility.yul\":18830:18911   */\n      sstore\n        /* \"#utility.yul\":18699:18921   */\n      pop\n        /* \"#utility.yul\":18034:18921   */\n      jump(tag_313)\n        /* \"#utility.yul\":18064:18682   */\n    tag_314:\n        /* \"#utility.yul\":18116:18120   */\n      0x1f\n        /* \"#utility.yul\":18112:18121   */\n      not\n        /* \"#utility.yul\":18104:18110   */\n      dup5\n        /* \"#utility.yul\":18100:18122   */\n      and\n        /* \"#utility.yul\":18150:18187   */\n      tag_317\n        /* \"#utility.yul\":18182:18186   */\n      dup7\n        /* \"#utility.yul\":18150:18187   */\n      tag_116\n      jump\t// in\n    tag_317:\n        /* \"#utility.yul\":18209:18210   */\n      0x00\n        /* \"#utility.yul\":18223:18431   */\n    tag_318:\n        /* \"#utility.yul\":18237:18244   */\n      dup3\n        /* \"#utility.yul\":18234:18235   */\n      dup2\n        /* \"#utility.yul\":18231:18245   */\n      lt\n        /* \"#utility.yul\":18223:18431   */\n      iszero\n      tag_320\n      jumpi\n        /* \"#utility.yul\":18316:18325   */\n      dup5\n        /* \"#utility.yul\":18311:18314   */\n      dup10\n        /* \"#utility.yul\":18307:18326   */\n      add\n        /* \"#utility.yul\":18301:18327   */\n      mload\n        /* \"#utility.yul\":18293:18299   */\n      dup3\n        /* \"#utility.yul\":18286:18328   */\n      sstore\n        /* \"#utility.yul\":18367:18368   */\n      0x01\n        /* \"#utility.yul\":18359:18365   */\n      dup3\n        /* \"#utility.yul\":18355:18369   */\n      add\n        /* \"#utility.yul\":18345:18369   */\n      swap2\n      pop\n        /* \"#utility.yul\":18414:18416   */\n      0x20\n        /* \"#utility.yul\":18403:18412   */\n      dup6\n        /* \"#utility.yul\":18399:18417   */\n      add\n        /* \"#utility.yul\":18386:18417   */\n      swap5\n      pop\n        /* \"#utility.yul\":18260:18264   */\n      0x20\n        /* \"#utility.yul\":18257:18258   */\n      dup2\n        /* \"#utility.yul\":18253:18265   */\n      add\n        /* \"#utility.yul\":18248:18265   */\n      swap1\n      pop\n        /* \"#utility.yul\":18223:18431   */\n      jump(tag_318)\n    tag_320:\n        /* \"#utility.yul\":18459:18465   */\n      dup7\n        /* \"#utility.yul\":18450:18457   */\n      dup4\n        /* \"#utility.yul\":18447:18466   */\n      lt\n        /* \"#utility.yul\":18444:18623   */\n      iszero\n      tag_321\n      jumpi\n        /* \"#utility.yul\":18517:18526   */\n      dup5\n        /* \"#utility.yul\":18512:18515   */\n      dup10\n        /* \"#utility.yul\":18508:18527   */\n      add\n        /* \"#utility.yul\":18502:18528   */\n      mload\n        /* \"#utility.yul\":18560:18608   */\n      tag_322\n        /* \"#utility.yul\":18602:18606   */\n      0x1f\n        /* \"#utility.yul\":18594:18600   */\n      dup10\n        /* \"#utility.yul\":18590:18607   */\n      and\n        /* \"#utility.yul\":18579:18588   */\n      dup3\n        /* \"#utility.yul\":18560:18608   */\n      tag_129\n      jump\t// in\n    tag_322:\n        /* \"#utility.yul\":18552:18558   */\n      dup4\n        /* \"#utility.yul\":18545:18609   */\n      sstore\n        /* \"#utility.yul\":18467:18623   */\n      pop\n        /* \"#utility.yul\":18444:18623   */\n    tag_321:\n        /* \"#utility.yul\":18669:18670   */\n      0x01\n        /* \"#utility.yul\":18665:18666   */\n      0x02\n        /* \"#utility.yul\":18657:18663   */\n      dup9\n        /* \"#utility.yul\":18653:18667   */\n      mul\n        /* \"#utility.yul\":18649:18671   */\n      add\n        /* \"#utility.yul\":18643:18647   */\n      dup9\n        /* \"#utility.yul\":18636:18672   */\n      sstore\n        /* \"#utility.yul\":18071:18682   */\n      pop\n      pop\n      pop\n        /* \"#utility.yul\":18034:18921   */\n    tag_313:\n      pop\n        /* \"#utility.yul\":17624:18927   */\n      pop\n      pop\n      pop\n        /* \"#utility.yul\":17532:18927   */\n      pop\n      pop\n      jump\t// out\n        /* \"#utility.yul\":18933:19447   */\n    tag_76:\n        /* \"#utility.yul\":19094:19098   */\n      0x00\n        /* \"#utility.yul\":19132:19134   */\n      0x40\n        /* \"#utility.yul\":19121:19130   */\n      dup3\n        /* \"#utility.yul\":19117:19135   */\n      add\n        /* \"#utility.yul\":19109:19135   */\n      swap1\n      pop\n        /* \"#utility.yul\":19181:19190   */\n      dup2\n        /* \"#utility.yul\":19175:19179   */\n      dup2\n        /* \"#utility.yul\":19171:19191   */\n      sub\n        /* \"#utility.yul\":19167:19168   */\n      0x00\n        /* \"#utility.yul\":19156:19165   */\n      dup4\n        /* \"#utility.yul\":19152:19169   */\n      add\n        /* \"#utility.yul\":19145:19192   */\n      mstore\n        /* \"#utility.yul\":19209:19287   */\n      tag_324\n        /* \"#utility.yul\":19282:19286   */\n      dup2\n        /* \"#utility.yul\":19273:19279   */\n      dup6\n        /* \"#utility.yul\":19209:19287   */\n      tag_96\n      jump\t// in\n    tag_324:\n        /* \"#utility.yul\":19201:19287   */\n      swap1\n      pop\n        /* \"#utility.yul\":19334:19343   */\n      dup2\n        /* \"#utility.yul\":19328:19332   */\n      dup2\n        /* \"#utility.yul\":19324:19344   */\n      sub\n        /* \"#utility.yul\":19319:19321   */\n      0x20\n        /* \"#utility.yul\":19308:19317   */\n      dup4\n        /* \"#utility.yul\":19304:19322   */\n      add\n        /* \"#utility.yul\":19297:19345   */\n      mstore\n        /* \"#utility.yul\":19362:19440   */\n      tag_325\n        /* \"#utility.yul\":19435:19439   */\n      dup2\n        /* \"#utility.yul\":19426:19432   */\n      dup5\n        /* \"#utility.yul\":19362:19440   */\n      tag_96\n      jump\t// in\n    tag_325:\n        /* \"#utility.yul\":19354:19440   */\n      swap1\n      pop\n        /* \"#utility.yul\":18933:19447   */\n      swap4\n      swap3\n      pop\n      pop\n      pop\n      jump\t// out\n\n    auxdata: 0xa2646970667358221220670188ec0c92e63596a1e8f9f3a45140064027f8f9efd4385dd7610bceca2a5764736f6c63430008160033\n}\n",
				"bytecode": {
					"linkReferences": {},
					"object": "608060405234801561000f575f80fd5b50335f806101000a81548173ffffffffffffffffffffffffffffffffffffffff021916908373ffffffffffffffffffffffffffffffffffffffff1602179055506111378061005c5f395ff3fe60806040526004361061003e575f3560e01c80637e1593c014610042578063904a67511461005e5780639940f3fc1461009f578063f851a440146100bb575b5f80fd5b61005c6004803603810190610057919061089d565b6100e5565b005b348015610069575f80fd5b50610084600480360381019061007f91906108f7565b610297565b604051610096969594939291906109df565b60405180910390f35b6100b960048036038101906100b49190610a76565b6104c2565b005b3480156100c6575f80fd5b506100cf6106f8565b6040516100dc9190610ba6565b60405180910390f35b5f8054906101000a900473ffffffffffffffffffffffffffffffffffffffff1673ffffffffffffffffffffffffffffffffffffffff163373ffffffffffffffffffffffffffffffffffffffff1614610172576040517f08c379a000000000000000000000000000000000000000000000000000000000815260040161016990610c2f565b60405180910390fd5b5f34116101b4576040517f08c379a00000000000000000000000000000000000000000000000000000000081526004016101ab90610c97565b60405180910390fd5b5f6001836040516101c59190610cef565b90815260200160405180910390205f0180546101e090610d32565b905003610222576040517f08c379a000000000000000000000000000000000000000000000000000000000815260040161021990610dac565b60405180910390fd5b806001836040516102339190610cef565b90815260200160405180910390206005015f6101000a81548160ff0219169083151502179055507fae28c8e1b65deb76a9fe4be4aecbbb455b3c6aa0ea12906cb6d777048225186b828260405161028b929190610dca565b60405180910390a15050565b6060805f805f805f6001886040516102af9190610cef565b90815260200160405180910390205f0180546102ca90610d32565b90500361030c576040517f08c379a000000000000000000000000000000000000000000000000000000000815260040161030390610dac565b60405180910390fd5b5f60018860405161031d9190610cef565b90815260200160405180910390206040518060c00160405290815f8201805461034590610d32565b80601f016020809104026020016040519081016040528092919081815260200182805461037190610d32565b80156103bc5780601f10610393576101008083540402835291602001916103bc565b820191905f5260205f20905b81548152906001019060200180831161039f57829003601f168201915b505050505081526020016001820180546103d590610d32565b80601f016020809104026020016040519081016040528092919081815260200182805461040190610d32565b801561044c5780601f106104235761010080835404028352916020019161044c565b820191905f5260205f20905b81548152906001019060200180831161042f57829003601f168201915b50505050508152602001600282015481526020016003820154815260200160048201548152602001600582015f9054906101000a900460ff1615151515815250509050805f015181602001518260400151836060015184608001518560a001519650965096509650965096505091939550919395565b5f8054906101000a900473ffffffffffffffffffffffffffffffffffffffff1673ffffffffffffffffffffffffffffffffffffffff163373ffffffffffffffffffffffffffffffffffffffff161461054f576040517f08c379a000000000000000000000000000000000000000000000000000000000815260040161054690610c2f565b60405180910390fd5b5f3411610591576040517f08c379a000000000000000000000000000000000000000000000000000000000815260040161058890610c97565b60405180910390fd5b5f6001886040516105a29190610cef565b90815260200160405180910390205f0180546105bd90610d32565b9050146105ff576040517f08c379a00000000000000000000000000000000000000000000000000000000081526004016105f690610e42565b60405180910390fd5b6040518060c0016040528087815260200186815260200185815260200184815260200183815260200182151581525060018860405161063e9190610cef565b90815260200160405180910390205f820151815f01908161065f9190610ffd565b5060208201518160010190816106759190610ffd565b5060408201518160020155606082015181600301556080820151816004015560a0820151816005015f6101000a81548160ff0219169083151502179055509050507f72749d8c84e9e54c7aa0a99f07909b6bddba840ee6fca8c832e2787b3ecd981287876040516106e79291906110cc565b60405180910390a150505050505050565b5f8054906101000a900473ffffffffffffffffffffffffffffffffffffffff1681565b5f604051905090565b5f80fd5b5f80fd5b5f80fd5b5f80fd5b5f601f19601f8301169050919050565b7f4e487b71000000000000000000000000000000000000000000000000000000005f52604160045260245ffd5b61077a82610734565b810181811067ffffffffffffffff8211171561079957610798610744565b5b80604052505050565b5f6107ab61071b565b90506107b78282610771565b919050565b5f67ffffffffffffffff8211156107d6576107d5610744565b5b6107df82610734565b9050602081019050919050565b828183375f83830152505050565b5f61080c610807846107bc565b6107a2565b90508281526020810184848401111561082857610827610730565b5b6108338482856107ec565b509392505050565b5f82601f83011261084f5761084e61072c565b5b813561085f8482602086016107fa565b91505092915050565b5f8115159050919050565b61087c81610868565b8114610886575f80fd5b50565b5f8135905061089781610873565b92915050565b5f80604083850312156108b3576108b2610724565b5b5f83013567ffffffffffffffff8111156108d0576108cf610728565b5b6108dc8582860161083b565b92505060206108ed85828601610889565b9150509250929050565b5f6020828403121561090c5761090b610724565b5b5f82013567ffffffffffffffff81111561092957610928610728565b5b6109358482850161083b565b91505092915050565b5f81519050919050565b5f82825260208201905092915050565b5f5b8381101561097557808201518184015260208101905061095a565b5f8484015250505050565b5f61098a8261093e565b6109948185610948565b93506109a4818560208601610958565b6109ad81610734565b840191505092915050565b5f819050919050565b6109ca816109b8565b82525050565b6109d981610868565b82525050565b5f60c0820190508181035f8301526109f78189610980565b90508181036020830152610a0b8188610980565b9050610a1a60408301876109c1565b610a2760608301866109c1565b610a3460808301856109c1565b610a4160a08301846109d0565b979650505050505050565b610a55816109b8565b8114610a5f575f80fd5b50565b5f81359050610a7081610a4c565b92915050565b5f805f805f805f60e0888a031215610a9157610a90610724565b5b5f88013567ffffffffffffffff811115610aae57610aad610728565b5b610aba8a828b0161083b565b975050602088013567ffffffffffffffff811115610adb57610ada610728565b5b610ae78a828b0161083b565b965050604088013567ffffffffffffffff811115610b0857610b07610728565b5b610b148a828b0161083b565b9550506060610b258a828b01610a62565b9450506080610b368a828b01610a62565b93505060a0610b478a828b01610a62565b92505060c0610b588a828b01610889565b91505092959891949750929550565b5f73ffffffffffffffffffffffffffffffffffffffff82169050919050565b5f610b9082610b67565b9050919050565b610ba081610b86565b82525050565b5f602082019050610bb95f830184610b97565b92915050565b7f4f6e6c79207468652061646d696e2063616e20706572666f726d2074686973205f8201527f616374696f6e0000000000000000000000000000000000000000000000000000602082015250565b5f610c19602683610948565b9150610c2482610bbf565b604082019050919050565b5f6020820190508181035f830152610c4681610c0d565b9050919050565b7f5472616e73616374696f6e2072657175697265732045544800000000000000005f82015250565b5f610c81601883610948565b9150610c8c82610c4d565b602082019050919050565b5f6020820190508181035f830152610cae81610c75565b9050919050565b5f81905092915050565b5f610cc98261093e565b610cd38185610cb5565b9350610ce3818560208601610958565b80840191505092915050565b5f610cfa8284610cbf565b915081905092915050565b7f4e487b71000000000000000000000000000000000000000000000000000000005f52602260045260245ffd5b5f6002820490506001821680610d4957607f821691505b602082108103610d5c57610d5b610d05565b5b50919050565b7f50617373706f727420494420646f6573206e6f742065786973740000000000005f82015250565b5f610d96601a83610948565b9150610da182610d62565b602082019050919050565b5f6020820190508181035f830152610dc381610d8a565b9050919050565b5f6040820190508181035f830152610de28185610980565b9050610df160208301846109d0565b9392505050565b7f50617373706f727420494420616c7265616479206578697374730000000000005f82015250565b5f610e2c601a83610948565b9150610e3782610df8565b602082019050919050565b5f6020820190508181035f830152610e5981610e20565b9050919050565b5f819050815f5260205f209050919050565b5f6020601f8301049050919050565b5f82821b905092915050565b5f60088302610ebc7fffffffffffffffffffffffffffffffffffffffffffffffffffffffffffffffff82610e81565b610ec68683610e81565b95508019841693508086168417925050509392505050565b5f819050919050565b5f610f01610efc610ef7846109b8565b610ede565b6109b8565b9050919050565b5f819050919050565b610f1a83610ee7565b610f2e610f2682610f08565b848454610e8d565b825550505050565b5f90565b610f42610f36565b610f4d818484610f11565b505050565b5b81811015610f7057610f655f82610f3a565b600181019050610f53565b5050565b601f821115610fb557610f8681610e60565b610f8f84610e72565b81016020851015610f9e578190505b610fb2610faa85610e72565b830182610f52565b50505b505050565b5f82821c905092915050565b5f610fd55f1984600802610fba565b1980831691505092915050565b5f610fed8383610fc6565b9150826002028217905092915050565b6110068261093e565b67ffffffffffffffff81111561101f5761101e610744565b5b6110298254610d32565b611034828285610f74565b5f60209050601f831160018114611065575f8415611053578287015190505b61105d8582610fe2565b8655506110c4565b601f19841661107386610e60565b5f5b8281101561109a57848901518255600182019150602085019450602081019050611075565b868310156110b757848901516110b3601f891682610fc6565b8355505b6001600288020188555050505b505050505050565b5f6040820190508181035f8301526110e48185610980565b905081810360208301526110f88184610980565b9050939250505056fea2646970667358221220670188ec0c92e63596a1e8f9f3a45140064027f8f9efd4385dd7610bceca2a5764736f6c63430008160033",
					"opcodes": "PUSH1 0x80 PUSH1 0x40 MSTORE CALLVALUE DUP1 ISZERO PUSH2 0xF JUMPI PUSH0 DUP1 REVERT JUMPDEST POP CALLER PUSH0 DUP1 PUSH2 0x100 EXP DUP2 SLOAD DUP2 PUSH20 0xFFFFFFFFFFFFFFFFFFFFFFFFFFFFFFFFFFFFFFFF MUL NOT AND SWAP1 DUP4 PUSH20 0xFFFFFFFFFFFFFFFFFFFFFFFFFFFFFFFFFFFFFFFF AND MUL OR SWAP1 SSTORE POP PUSH2 0x1137 DUP1 PUSH2 0x5C PUSH0 CODECOPY PUSH0 RETURN INVALID PUSH1 0x80 PUSH1 0x40 MSTORE PUSH1 0x4 CALLDATASIZE LT PUSH2 0x3E JUMPI PUSH0 CALLDATALOAD PUSH1 0xE0 SHR DUP1 PUSH4 0x7E1593C0 EQ PUSH2 0x42 JUMPI DUP1 PUSH4 0x904A6751 EQ PUSH2 0x5E JUMPI DUP1 PUSH4 0x9940F3FC EQ PUSH2 0x9F JUMPI DUP1 PUSH4 0xF851A440 EQ PUSH2 0xBB JUMPI JUMPDEST PUSH0 DUP1 REVERT JUMPDEST PUSH2 0x5C PUSH1 0x4 DUP1 CALLDATASIZE SUB DUP2 ADD SWAP1 PUSH2 0x57 SWAP2 SWAP1 PUSH2 0x89D JUMP JUMPDEST PUSH2 0xE5 JUMP JUMPDEST STOP JUMPDEST CALLVALUE DUP1 ISZERO PUSH2 0x69 JUMPI PUSH0 DUP1 REVERT JUMPDEST POP PUSH2 0x84 PUSH1 0x4 DUP1 CALLDATASIZE SUB DUP2 ADD SWAP1 PUSH2 0x7F SWAP2 SWAP1 PUSH2 0x8F7 JUMP JUMPDEST PUSH2 0x297 JUMP JUMPDEST PUSH1 0x40 MLOAD PUSH2 0x96 SWAP7 SWAP6 SWAP5 SWAP4 SWAP3 SWAP2 SWAP1 PUSH2 0x9DF JUMP JUMPDEST PUSH1 0x40 MLOAD DUP1 SWAP2 SUB SWAP1 RETURN JUMPDEST PUSH2 0xB9 PUSH1 0x4 DUP1 CALLDATASIZE SUB DUP2 ADD SWAP1 PUSH2 0xB4 SWAP2 SWAP1 PUSH2 0xA76 JUMP JUMPDEST PUSH2 0x4C2 JUMP JUMPDEST STOP JUMPDEST CALLVALUE DUP1 ISZERO PUSH2 0xC6 JUMPI PUSH0 DUP1 REVERT JUMPDEST POP PUSH2 0xCF PUSH2 0x6F8 JUMP JUMPDEST PUSH1 0x40 MLOAD PUSH2 0xDC SWAP2 SWAP1 PUSH2 0xBA6 JUMP JUMPDEST PUSH1 0x40 MLOAD DUP1 SWAP2 SUB SWAP1 RETURN JUMPDEST PUSH0 DUP1 SLOAD SWAP1 PUSH2 0x100 EXP SWAP1 DIV PUSH20 0xFFFFFFFFFFFFFFFFFFFFFFFFFFFFFFFFFFFFFFFF AND PUSH20 0xFFFFFFFFFFFFFFFFFFFFFFFFFFFFFFFFFFFFFFFF AND CALLER PUSH20 0xFFFFFFFFFFFFFFFFFFFFFFFFFFFFFFFFFFFFFFFF AND EQ PUSH2 0x172 JUMPI PUSH1 0x40 MLOAD PUSH32 0x8C379A000000000000000000000000000000000000000000000000000000000 DUP2 MSTORE PUSH1 0x4 ADD PUSH2 0x169 SWAP1 PUSH2 0xC2F JUMP JUMPDEST PUSH1 0x40 MLOAD DUP1 SWAP2 SUB SWAP1 REVERT JUMPDEST PUSH0 CALLVALUE GT PUSH2 0x1B4 JUMPI PUSH1 0x40 MLOAD PUSH32 0x8C379A000000000000000000000000000000000000000000000000000000000 DUP2 MSTORE PUSH1 0x4 ADD PUSH2 0x1AB SWAP1 PUSH2 0xC97 JUMP JUMPDEST PUSH1 0x40 MLOAD DUP1 SWAP2 SUB SWAP1 REVERT JUMPDEST PUSH0 PUSH1 0x1 DUP4 PUSH1 0x40 MLOAD PUSH2 0x1C5 SWAP2 SWAP1 PUSH2 0xCEF JUMP JUMPDEST SWAP1 DUP2 MSTORE PUSH1 0x20 ADD PUSH1 0x40 MLOAD DUP1 SWAP2 SUB SWAP1 KECCAK256 PUSH0 ADD DUP1 SLOAD PUSH2 0x1E0 SWAP1 PUSH2 0xD32 JUMP JUMPDEST SWAP1 POP SUB PUSH2 0x222 JUMPI PUSH1 0x40 MLOAD PUSH32 0x8C379A000000000000000000000000000000000000000000000000000000000 DUP2 MSTORE PUSH1 0x4 ADD PUSH2 0x219 SWAP1 PUSH2 0xDAC JUMP JUMPDEST PUSH1 0x40 MLOAD DUP1 SWAP2 SUB SWAP1 REVERT JUMPDEST DUP1 PUSH1 0x1 DUP4 PUSH1 0x40 MLOAD PUSH2 0x233 SWAP2 SWAP1 PUSH2 0xCEF JUMP JUMPDEST SWAP1 DUP2 MSTORE PUSH1 0x20 ADD PUSH1 0x40 MLOAD DUP1 SWAP2 SUB SWAP1 KECCAK256 PUSH1 0x5 ADD PUSH0 PUSH2 0x100 EXP DUP2 SLOAD DUP2 PUSH1 0xFF MUL NOT AND SWAP1 DUP4 ISZERO ISZERO MUL OR SWAP1 SSTORE POP PUSH32 0xAE28C8E1B65DEB76A9FE4BE4AECBBB455B3C6AA0EA12906CB6D777048225186B DUP3 DUP3 PUSH1 0x40 MLOAD PUSH2 0x28B SWAP3 SWAP2 SWAP1 PUSH2 0xDCA JUMP JUMPDEST PUSH1 0x40 MLOAD DUP1 SWAP2 SUB SWAP1 LOG1 POP POP JUMP JUMPDEST PUSH1 0x60 DUP1 PUSH0 DUP1 PUSH0 DUP1 PUSH0 PUSH1 0x1 DUP9 PUSH1 0x40 MLOAD PUSH2 0x2AF SWAP2 SWAP1 PUSH2 0xCEF JUMP JUMPDEST SWAP1 DUP2 MSTORE PUSH1 0x20 ADD PUSH1 0x40 MLOAD DUP1 SWAP2 SUB SWAP1 KECCAK256 PUSH0 ADD DUP1 SLOAD PUSH2 0x2CA SWAP1 PUSH2 0xD32 JUMP JUMPDEST SWAP1 POP SUB PUSH2 0x30C JUMPI PUSH1 0x40 MLOAD PUSH32 0x8C379A000000000000000000000000000000000000000000000000000000000 DUP2 MSTORE PUSH1 0x4 ADD PUSH2 0x303 SWAP1 PUSH2 0xDAC JUMP JUMPDEST PUSH1 0x40 MLOAD DUP1 SWAP2 SUB SWAP1 REVERT JUMPDEST PUSH0 PUSH1 0x1 DUP9 PUSH1 0x40 MLOAD PUSH2 0x31D SWAP2 SWAP1 PUSH2 0xCEF JUMP JUMPDEST SWAP1 DUP2 MSTORE PUSH1 0x20 ADD PUSH1 0x40 MLOAD DUP1 SWAP2 SUB SWAP1 KECCAK256 PUSH1 0x40 MLOAD DUP1 PUSH1 0xC0 ADD PUSH1 0x40 MSTORE SWAP1 DUP2 PUSH0 DUP3 ADD DUP1 SLOAD PUSH2 0x345 SWAP1 PUSH2 0xD32 JUMP JUMPDEST DUP1 PUSH1 0x1F ADD PUSH1 0x20 DUP1 SWAP2 DIV MUL PUSH1 0x20 ADD PUSH1 0x40 MLOAD SWAP1 DUP2 ADD PUSH1 0x40 MSTORE DUP1 SWAP3 SWAP2 SWAP1 DUP2 DUP2 MSTORE PUSH1 0x20 ADD DUP3 DUP1 SLOAD PUSH2 0x371 SWAP1 PUSH2 0xD32 JUMP JUMPDEST DUP1 ISZERO PUSH2 0x3BC JUMPI DUP1 PUSH1 0x1F LT PUSH2 0x393 JUMPI PUSH2 0x100 DUP1 DUP4 SLOAD DIV MUL DUP4 MSTORE SWAP2 PUSH1 0x20 ADD SWAP2 PUSH2 0x3BC JUMP JUMPDEST DUP3 ADD SWAP2 SWAP1 PUSH0 MSTORE PUSH1 0x20 PUSH0 KECCAK256 SWAP1 JUMPDEST DUP2 SLOAD DUP2 MSTORE SWAP1 PUSH1 0x1 ADD SWAP1 PUSH1 0x20 ADD DUP1 DUP4 GT PUSH2 0x39F JUMPI DUP3 SWAP1 SUB PUSH1 0x1F AND DUP3 ADD SWAP2 JUMPDEST POP POP POP POP POP DUP2 MSTORE PUSH1 0x20 ADD PUSH1 0x1 DUP3 ADD DUP1 SLOAD PUSH2 0x3D5 SWAP1 PUSH2 0xD32 JUMP JUMPDEST DUP1 PUSH1 0x1F ADD PUSH1 0x20 DUP1 SWAP2 DIV MUL PUSH1 0x20 ADD PUSH1 0x40 MLOAD SWAP1 DUP2 ADD PUSH1 0x40 MSTORE DUP1 SWAP3 SWAP2 SWAP1 DUP2 DUP2 MSTORE PUSH1 0x20 ADD DUP3 DUP1 SLOAD PUSH2 0x401 SWAP1 PUSH2 0xD32 JUMP JUMPDEST DUP1 ISZERO PUSH2 0x44C JUMPI DUP1 PUSH1 0x1F LT PUSH2 0x423 JUMPI PUSH2 0x100 DUP1 DUP4 SLOAD DIV MUL DUP4 MSTORE SWAP2 PUSH1 0x20 ADD SWAP2 PUSH2 0x44C JUMP JUMPDEST DUP3 ADD SWAP2 SWAP1 PUSH0 MSTORE PUSH1 0x20 PUSH0 KECCAK256 SWAP1 JUMPDEST DUP2 SLOAD DUP2 MSTORE SWAP1 PUSH1 0x1 ADD SWAP1 PUSH1 0x20 ADD DUP1 DUP4 GT PUSH2 0x42F JUMPI DUP3 SWAP1 SUB PUSH1 0x1F AND DUP3 ADD SWAP2 JUMPDEST POP POP POP POP POP DUP2 MSTORE PUSH1 0x20 ADD PUSH1 0x2 DUP3 ADD SLOAD DUP2 MSTORE PUSH1 0x20 ADD PUSH1 0x3 DUP3 ADD SLOAD DUP2 MSTORE PUSH1 0x20 ADD PUSH1 0x4 DUP3 ADD SLOAD DUP2 MSTORE PUSH1 0x20 ADD PUSH1 0x5 DUP3 ADD PUSH0 SWAP1 SLOAD SWAP1 PUSH2 0x100 EXP SWAP1 DIV PUSH1 0xFF AND ISZERO ISZERO ISZERO ISZERO DUP2 MSTORE POP POP SWAP1 POP DUP1 PUSH0 ADD MLOAD DUP2 PUSH1 0x20 ADD MLOAD DUP3 PUSH1 0x40 ADD MLOAD DUP4 PUSH1 0x60 ADD MLOAD DUP5 PUSH1 0x80 ADD MLOAD DUP6 PUSH1 0xA0 ADD MLOAD SWAP7 POP SWAP7 POP SWAP7 POP SWAP7 POP SWAP7 POP SWAP7 POP POP SWAP2 SWAP4 SWAP6 POP SWAP2 SWAP4 SWAP6 JUMP JUMPDEST PUSH0 DUP1 SLOAD SWAP1 PUSH2 0x100 EXP SWAP1 DIV PUSH20 0xFFFFFFFFFFFFFFFFFFFFFFFFFFFFFFFFFFFFFFFF AND PUSH20 0xFFFFFFFFFFFFFFFFFFFFFFFFFFFFFFFFFFFFFFFF AND CALLER PUSH20 0xFFFFFFFFFFFFFFFFFFFFFFFFFFFFFFFFFFFFFFFF AND EQ PUSH2 0x54F JUMPI PUSH1 0x40 MLOAD PUSH32 0x8C379A000000000000000000000000000000000000000000000000000000000 DUP2 MSTORE PUSH1 0x4 ADD PUSH2 0x546 SWAP1 PUSH2 0xC2F JUMP JUMPDEST PUSH1 0x40 MLOAD DUP1 SWAP2 SUB SWAP1 REVERT JUMPDEST PUSH0 CALLVALUE GT PUSH2 0x591 JUMPI PUSH1 0x40 MLOAD PUSH32 0x8C379A000000000000000000000000000000000000000000000000000000000 DUP2 MSTORE PUSH1 0x4 ADD PUSH2 0x588 SWAP1 PUSH2 0xC97 JUMP JUMPDEST PUSH1 0x40 MLOAD DUP1 SWAP2 SUB SWAP1 REVERT JUMPDEST PUSH0 PUSH1 0x1 DUP9 PUSH1 0x40 MLOAD PUSH2 0x5A2 SWAP2 SWAP1 PUSH2 0xCEF JUMP JUMPDEST SWAP1 DUP2 MSTORE PUSH1 0x20 ADD PUSH1 0x40 MLOAD DUP1 SWAP2 SUB SWAP1 KECCAK256 PUSH0 ADD DUP1 SLOAD PUSH2 0x5BD SWAP1 PUSH2 0xD32 JUMP JUMPDEST SWAP1 POP EQ PUSH2 0x5FF JUMPI PUSH1 0x40 MLOAD PUSH32 0x8C379A000000000000000000000000000000000000000000000000000000000 DUP2 MSTORE PUSH1 0x4 ADD PUSH2 0x5F6 SWAP1 PUSH2 0xE42 JUMP JUMPDEST PUSH1 0x40 MLOAD DUP1 SWAP2 SUB SWAP1 REVERT JUMPDEST PUSH1 0x40 MLOAD DUP1 PUSH1 0xC0 ADD PUSH1 0x40 MSTORE DUP1 DUP8 DUP2 MSTORE PUSH1 0x20 ADD DUP7 DUP2 MSTORE PUSH1 0x20 ADD DUP6 DUP2 MSTORE PUSH1 0x20 ADD DUP5 DUP2 MSTORE PUSH1 0x20 ADD DUP4 DUP2 MSTORE PUSH1 0x20 ADD DUP3 ISZERO ISZERO DUP2 MSTORE POP PUSH1 0x1 DUP9 PUSH1 0x40 MLOAD PUSH2 0x63E SWAP2 SWAP1 PUSH2 0xCEF JUMP JUMPDEST SWAP1 DUP2 MSTORE PUSH1 0x20 ADD PUSH1 0x40 MLOAD DUP1 SWAP2 SUB SWAP1 KECCAK256 PUSH0 DUP3 ADD MLOAD DUP2 PUSH0 ADD SWAP1 DUP2 PUSH2 0x65F SWAP2 SWAP1 PUSH2 0xFFD JUMP JUMPDEST POP PUSH1 0x20 DUP3 ADD MLOAD DUP2 PUSH1 0x1 ADD SWAP1 DUP2 PUSH2 0x675 SWAP2 SWAP1 PUSH2 0xFFD JUMP JUMPDEST POP PUSH1 0x40 DUP3 ADD MLOAD DUP2 PUSH1 0x2 ADD SSTORE PUSH1 0x60 DUP3 ADD MLOAD DUP2 PUSH1 0x3 ADD SSTORE PUSH1 0x80 DUP3 ADD MLOAD DUP2 PUSH1 0x4 ADD SSTORE PUSH1 0xA0 DUP3 ADD MLOAD DUP2 PUSH1 0x5 ADD PUSH0 PUSH2 0x100 EXP DUP2 SLOAD DUP2 PUSH1 0xFF MUL NOT AND SWAP1 DUP4 ISZERO ISZERO MUL OR SWAP1 SSTORE POP SWAP1 POP POP PUSH32 0x72749D8C84E9E54C7AA0A99F07909B6BDDBA840EE6FCA8C832E2787B3ECD9812 DUP8 DUP8 PUSH1 0x40 MLOAD PUSH2 0x6E7 SWAP3 SWAP2 SWAP1 PUSH2 0x10CC JUMP JUMPDEST PUSH1 0x40 MLOAD DUP1 SWAP2 SUB SWAP1 LOG1 POP POP POP POP POP POP POP JUMP JUMPDEST PUSH0 DUP1 SLOAD SWAP1 PUSH2 0x100 EXP SWAP1 DIV PUSH20 0xFFFFFFFFFFFFFFFFFFFFFFFFFFFFFFFFFFFFFFFF AND DUP2 JUMP JUMPDEST PUSH0 PUSH1 0x40 MLOAD SWAP1 POP SWAP1 JUMP JUMPDEST PUSH0 DUP1 REVERT JUMPDEST PUSH0 DUP1 REVERT JUMPDEST PUSH0 DUP1 REVERT JUMPDEST PUSH0 DUP1 REVERT JUMPDEST PUSH0 PUSH1 0x1F NOT PUSH1 0x1F DUP4 ADD AND SWAP1 POP SWAP2 SWAP1 POP JUMP JUMPDEST PUSH32 0x4E487B7100000000000000000000000000000000000000000000000000000000 PUSH0 MSTORE PUSH1 0x41 PUSH1 0x4 MSTORE PUSH1 0x24 PUSH0 REVERT JUMPDEST PUSH2 0x77A DUP3 PUSH2 0x734 JUMP JUMPDEST DUP2 ADD DUP2 DUP2 LT PUSH8 0xFFFFFFFFFFFFFFFF DUP3 GT OR ISZERO PUSH2 0x799 JUMPI PUSH2 0x798 PUSH2 0x744 JUMP JUMPDEST JUMPDEST DUP1 PUSH1 0x40 MSTORE POP POP POP JUMP JUMPDEST PUSH0 PUSH2 0x7AB PUSH2 0x71B JUMP JUMPDEST SWAP1 POP PUSH2 0x7B7 DUP3 DUP3 PUSH2 0x771 JUMP JUMPDEST SWAP2 SWAP1 POP JUMP JUMPDEST PUSH0 PUSH8 0xFFFFFFFFFFFFFFFF DUP3 GT ISZERO PUSH2 0x7D6 JUMPI PUSH2 0x7D5 PUSH2 0x744 JUMP JUMPDEST JUMPDEST PUSH2 0x7DF DUP3 PUSH2 0x734 JUMP JUMPDEST SWAP1 POP PUSH1 0x20 DUP2 ADD SWAP1 POP SWAP2 SWAP1 POP JUMP JUMPDEST DUP3 DUP2 DUP4 CALLDATACOPY PUSH0 DUP4 DUP4 ADD MSTORE POP POP POP JUMP JUMPDEST PUSH0 PUSH2 0x80C PUSH2 0x807 DUP5 PUSH2 0x7BC JUMP JUMPDEST PUSH2 0x7A2 JUMP JUMPDEST SWAP1 POP DUP3 DUP2 MSTORE PUSH1 0x20 DUP2 ADD DUP5 DUP5 DUP5 ADD GT ISZERO PUSH2 0x828 JUMPI PUSH2 0x827 PUSH2 0x730 JUMP JUMPDEST JUMPDEST PUSH2 0x833 DUP5 DUP3 DUP6 PUSH2 0x7EC JUMP JUMPDEST POP SWAP4 SWAP3 POP POP POP JUMP JUMPDEST PUSH0 DUP3 PUSH1 0x1F DUP4 ADD SLT PUSH2 0x84F JUMPI PUSH2 0x84E PUSH2 0x72C JUMP JUMPDEST JUMPDEST DUP2 CALLDATALOAD PUSH2 0x85F DUP5 DUP3 PUSH1 0x20 DUP7 ADD PUSH2 0x7FA JUMP JUMPDEST SWAP2 POP POP SWAP3 SWAP2 POP POP JUMP JUMPDEST PUSH0 DUP2 ISZERO ISZERO SWAP1 POP SWAP2 SWAP1 POP JUMP JUMPDEST PUSH2 0x87C DUP2 PUSH2 0x868 JUMP JUMPDEST DUP2 EQ PUSH2 0x886 JUMPI PUSH0 DUP1 REVERT JUMPDEST POP JUMP JUMPDEST PUSH0 DUP2 CALLDATALOAD SWAP1 POP PUSH2 0x897 DUP2 PUSH2 0x873 JUMP JUMPDEST SWAP3 SWAP2 POP POP JUMP JUMPDEST PUSH0 DUP1 PUSH1 0x40 DUP4 DUP6 SUB SLT ISZERO PUSH2 0x8B3 JUMPI PUSH2 0x8B2 PUSH2 0x724 JUMP JUMPDEST JUMPDEST PUSH0 DUP4 ADD CALLDATALOAD PUSH8 0xFFFFFFFFFFFFFFFF DUP2 GT ISZERO PUSH2 0x8D0 JUMPI PUSH2 0x8CF PUSH2 0x728 JUMP JUMPDEST JUMPDEST PUSH2 0x8DC DUP6 DUP3 DUP7 ADD PUSH2 0x83B JUMP JUMPDEST SWAP3 POP POP PUSH1 0x20 PUSH2 0x8ED DUP6 DUP3 DUP7 ADD PUSH2 0x889 JUMP JUMPDEST SWAP2 POP POP SWAP3 POP SWAP3 SWAP1 POP JUMP JUMPDEST PUSH0 PUSH1 0x20 DUP3 DUP5 SUB SLT ISZERO PUSH2 0x90C JUMPI PUSH2 0x90B PUSH2 0x724 JUMP JUMPDEST JUMPDEST PUSH0 DUP3 ADD CALLDATALOAD PUSH8 0xFFFFFFFFFFFFFFFF DUP2 GT ISZERO PUSH2 0x929 JUMPI PUSH2 0x928 PUSH2 0x728 JUMP JUMPDEST JUMPDEST PUSH2 0x935 DUP5 DUP3 DUP6 ADD PUSH2 0x83B JUMP JUMPDEST SWAP2 POP POP SWAP3 SWAP2 POP POP JUMP JUMPDEST PUSH0 DUP2 MLOAD SWAP1 POP SWAP2 SWAP1 POP JUMP JUMPDEST PUSH0 DUP3 DUP3 MSTORE PUSH1 0x20 DUP3 ADD SWAP1 POP SWAP3 SWAP2 POP POP JUMP JUMPDEST PUSH0 JUMPDEST DUP4 DUP2 LT ISZERO PUSH2 0x975 JUMPI DUP1 DUP3 ADD MLOAD DUP2 DUP5 ADD MSTORE PUSH1 0x20 DUP2 ADD SWAP1 POP PUSH2 0x95A JUMP JUMPDEST PUSH0 DUP5 DUP5 ADD MSTORE POP POP POP POP JUMP JUMPDEST PUSH0 PUSH2 0x98A DUP3 PUSH2 0x93E JUMP JUMPDEST PUSH2 0x994 DUP2 DUP6 PUSH2 0x948 JUMP JUMPDEST SWAP4 POP PUSH2 0x9A4 DUP2 DUP6 PUSH1 0x20 DUP7 ADD PUSH2 0x958 JUMP JUMPDEST PUSH2 0x9AD DUP2 PUSH2 0x734 JUMP JUMPDEST DUP5 ADD SWAP2 POP POP SWAP3 SWAP2 POP POP JUMP JUMPDEST PUSH0 DUP2 SWAP1 POP SWAP2 SWAP1 POP JUMP JUMPDEST PUSH2 0x9CA DUP2 PUSH2 0x9B8 JUMP JUMPDEST DUP3 MSTORE POP POP JUMP JUMPDEST PUSH2 0x9D9 DUP2 PUSH2 0x868 JUMP JUMPDEST DUP3 MSTORE POP POP JUMP JUMPDEST PUSH0 PUSH1 0xC0 DUP3 ADD SWAP1 POP DUP2 DUP2 SUB PUSH0 DUP4 ADD MSTORE PUSH2 0x9F7 DUP2 DUP10 PUSH2 0x980 JUMP JUMPDEST SWAP1 POP DUP2 DUP2 SUB PUSH1 0x20 DUP4 ADD MSTORE PUSH2 0xA0B DUP2 DUP9 PUSH2 0x980 JUMP JUMPDEST SWAP1 POP PUSH2 0xA1A PUSH1 0x40 DUP4 ADD DUP8 PUSH2 0x9C1 JUMP JUMPDEST PUSH2 0xA27 PUSH1 0x60 DUP4 ADD DUP7 PUSH2 0x9C1 JUMP JUMPDEST PUSH2 0xA34 PUSH1 0x80 DUP4 ADD DUP6 PUSH2 0x9C1 JUMP JUMPDEST PUSH2 0xA41 PUSH1 0xA0 DUP4 ADD DUP5 PUSH2 0x9D0 JUMP JUMPDEST SWAP8 SWAP7 POP POP POP POP POP POP POP JUMP JUMPDEST PUSH2 0xA55 DUP2 PUSH2 0x9B8 JUMP JUMPDEST DUP2 EQ PUSH2 0xA5F JUMPI PUSH0 DUP1 REVERT JUMPDEST POP JUMP JUMPDEST PUSH0 DUP2 CALLDATALOAD SWAP1 POP PUSH2 0xA70 DUP2 PUSH2 0xA4C JUMP JUMPDEST SWAP3 SWAP2 POP POP JUMP JUMPDEST PUSH0 DUP1 PUSH0 DUP1 PUSH0 DUP1 PUSH0 PUSH1 0xE0 DUP9 DUP11 SUB SLT ISZERO PUSH2 0xA91 JUMPI PUSH2 0xA90 PUSH2 0x724 JUMP JUMPDEST JUMPDEST PUSH0 DUP9 ADD CALLDATALOAD PUSH8 0xFFFFFFFFFFFFFFFF DUP2 GT ISZERO PUSH2 0xAAE JUMPI PUSH2 0xAAD PUSH2 0x728 JUMP JUMPDEST JUMPDEST PUSH2 0xABA DUP11 DUP3 DUP12 ADD PUSH2 0x83B JUMP JUMPDEST SWAP8 POP POP PUSH1 0x20 DUP9 ADD CALLDATALOAD PUSH8 0xFFFFFFFFFFFFFFFF DUP2 GT ISZERO PUSH2 0xADB JUMPI PUSH2 0xADA PUSH2 0x728 JUMP JUMPDEST JUMPDEST PUSH2 0xAE7 DUP11 DUP3 DUP12 ADD PUSH2 0x83B JUMP JUMPDEST SWAP7 POP POP PUSH1 0x40 DUP9 ADD CALLDATALOAD PUSH8 0xFFFFFFFFFFFFFFFF DUP2 GT ISZERO PUSH2 0xB08 JUMPI PUSH2 0xB07 PUSH2 0x728 JUMP JUMPDEST JUMPDEST PUSH2 0xB14 DUP11 DUP3 DUP12 ADD PUSH2 0x83B JUMP JUMPDEST SWAP6 POP POP PUSH1 0x60 PUSH2 0xB25 DUP11 DUP3 DUP12 ADD PUSH2 0xA62 JUMP JUMPDEST SWAP5 POP POP PUSH1 0x80 PUSH2 0xB36 DUP11 DUP3 DUP12 ADD PUSH2 0xA62 JUMP JUMPDEST SWAP4 POP POP PUSH1 0xA0 PUSH2 0xB47 DUP11 DUP3 DUP12 ADD PUSH2 0xA62 JUMP JUMPDEST SWAP3 POP POP PUSH1 0xC0 PUSH2 0xB58 DUP11 DUP3 DUP12 ADD PUSH2 0x889 JUMP JUMPDEST SWAP2 POP POP SWAP3 SWAP6 SWAP9 SWAP2 SWAP5 SWAP8 POP SWAP3 SWAP6 POP JUMP JUMPDEST PUSH0 PUSH20 0xFFFFFFFFFFFFFFFFFFFFFFFFFFFFFFFFFFFFFFFF DUP3 AND SWAP1 POP SWAP2 SWAP1 POP JUMP JUMPDEST PUSH0 PUSH2 0xB90 DUP3 PUSH2 0xB67 JUMP JUMPDEST SWAP1 POP SWAP2 SWAP1 POP JUMP JUMPDEST PUSH2 0xBA0 DUP2 PUSH2 0xB86 JUMP JUMPDEST DUP3 MSTORE POP POP JUMP JUMPDEST PUSH0 PUSH1 0x20 DUP3 ADD SWAP1 POP PUSH2 0xBB9 PUSH0 DUP4 ADD DUP5 PUSH2 0xB97 JUMP JUMPDEST SWAP3 SWAP2 POP POP JUMP JUMPDEST PUSH32 0x4F6E6C79207468652061646D696E2063616E20706572666F726D207468697320 PUSH0 DUP3 ADD MSTORE PUSH32 0x616374696F6E0000000000000000000000000000000000000000000000000000 PUSH1 0x20 DUP3 ADD MSTORE POP JUMP JUMPDEST PUSH0 PUSH2 0xC19 PUSH1 0x26 DUP4 PUSH2 0x948 JUMP JUMPDEST SWAP2 POP PUSH2 0xC24 DUP3 PUSH2 0xBBF JUMP JUMPDEST PUSH1 0x40 DUP3 ADD SWAP1 POP SWAP2 SWAP1 POP JUMP JUMPDEST PUSH0 PUSH1 0x20 DUP3 ADD SWAP1 POP DUP2 DUP2 SUB PUSH0 DUP4 ADD MSTORE PUSH2 0xC46 DUP2 PUSH2 0xC0D JUMP JUMPDEST SWAP1 POP SWAP2 SWAP1 POP JUMP JUMPDEST PUSH32 0x5472616E73616374696F6E207265717569726573204554480000000000000000 PUSH0 DUP3 ADD MSTORE POP JUMP JUMPDEST PUSH0 PUSH2 0xC81 PUSH1 0x18 DUP4 PUSH2 0x948 JUMP JUMPDEST SWAP2 POP PUSH2 0xC8C DUP3 PUSH2 0xC4D JUMP JUMPDEST PUSH1 0x20 DUP3 ADD SWAP1 POP SWAP2 SWAP1 POP JUMP JUMPDEST PUSH0 PUSH1 0x20 DUP3 ADD SWAP1 POP DUP2 DUP2 SUB PUSH0 DUP4 ADD MSTORE PUSH2 0xCAE DUP2 PUSH2 0xC75 JUMP JUMPDEST SWAP1 POP SWAP2 SWAP1 POP JUMP JUMPDEST PUSH0 DUP2 SWAP1 POP SWAP3 SWAP2 POP POP JUMP JUMPDEST PUSH0 PUSH2 0xCC9 DUP3 PUSH2 0x93E JUMP JUMPDEST PUSH2 0xCD3 DUP2 DUP6 PUSH2 0xCB5 JUMP JUMPDEST SWAP4 POP PUSH2 0xCE3 DUP2 DUP6 PUSH1 0x20 DUP7 ADD PUSH2 0x958 JUMP JUMPDEST DUP1 DUP5 ADD SWAP2 POP POP SWAP3 SWAP2 POP POP JUMP JUMPDEST PUSH0 PUSH2 0xCFA DUP3 DUP5 PUSH2 0xCBF JUMP JUMPDEST SWAP2 POP DUP2 SWAP1 POP SWAP3 SWAP2 POP POP JUMP JUMPDEST PUSH32 0x4E487B7100000000000000000000000000000000000000000000000000000000 PUSH0 MSTORE PUSH1 0x22 PUSH1 0x4 MSTORE PUSH1 0x24 PUSH0 REVERT JUMPDEST PUSH0 PUSH1 0x2 DUP3 DIV SWAP1 POP PUSH1 0x1 DUP3 AND DUP1 PUSH2 0xD49 JUMPI PUSH1 0x7F DUP3 AND SWAP2 POP JUMPDEST PUSH1 0x20 DUP3 LT DUP2 SUB PUSH2 0xD5C JUMPI PUSH2 0xD5B PUSH2 0xD05 JUMP JUMPDEST JUMPDEST POP SWAP2 SWAP1 POP JUMP JUMPDEST PUSH32 0x50617373706F727420494420646F6573206E6F74206578697374000000000000 PUSH0 DUP3 ADD MSTORE POP JUMP JUMPDEST PUSH0 PUSH2 0xD96 PUSH1 0x1A DUP4 PUSH2 0x948 JUMP JUMPDEST SWAP2 POP PUSH2 0xDA1 DUP3 PUSH2 0xD62 JUMP JUMPDEST PUSH1 0x20 DUP3 ADD SWAP1 POP SWAP2 SWAP1 POP JUMP JUMPDEST PUSH0 PUSH1 0x20 DUP3 ADD SWAP1 POP DUP2 DUP2 SUB PUSH0 DUP4 ADD MSTORE PUSH2 0xDC3 DUP2 PUSH2 0xD8A JUMP JUMPDEST SWAP1 POP SWAP2 SWAP1 POP JUMP JUMPDEST PUSH0 PUSH1 0x40 DUP3 ADD SWAP1 POP DUP2 DUP2 SUB PUSH0 DUP4 ADD MSTORE PUSH2 0xDE2 DUP2 DUP6 PUSH2 0x980 JUMP JUMPDEST SWAP1 POP PUSH2 0xDF1 PUSH1 0x20 DUP4 ADD DUP5 PUSH2 0x9D0 JUMP JUMPDEST SWAP4 SWAP3 POP POP POP JUMP JUMPDEST PUSH32 0x50617373706F727420494420616C726561647920657869737473000000000000 PUSH0 DUP3 ADD MSTORE POP JUMP JUMPDEST PUSH0 PUSH2 0xE2C PUSH1 0x1A DUP4 PUSH2 0x948 JUMP JUMPDEST SWAP2 POP PUSH2 0xE37 DUP3 PUSH2 0xDF8 JUMP JUMPDEST PUSH1 0x20 DUP3 ADD SWAP1 POP SWAP2 SWAP1 POP JUMP JUMPDEST PUSH0 PUSH1 0x20 DUP3 ADD SWAP1 POP DUP2 DUP2 SUB PUSH0 DUP4 ADD MSTORE PUSH2 0xE59 DUP2 PUSH2 0xE20 JUMP JUMPDEST SWAP1 POP SWAP2 SWAP1 POP JUMP JUMPDEST PUSH0 DUP2 SWAP1 POP DUP2 PUSH0 MSTORE PUSH1 0x20 PUSH0 KECCAK256 SWAP1 POP SWAP2 SWAP1 POP JUMP JUMPDEST PUSH0 PUSH1 0x20 PUSH1 0x1F DUP4 ADD DIV SWAP1 POP SWAP2 SWAP1 POP JUMP JUMPDEST PUSH0 DUP3 DUP3 SHL SWAP1 POP SWAP3 SWAP2 POP POP JUMP JUMPDEST PUSH0 PUSH1 0x8 DUP4 MUL PUSH2 0xEBC PUSH32 0xFFFFFFFFFFFFFFFFFFFFFFFFFFFFFFFFFFFFFFFFFFFFFFFFFFFFFFFFFFFFFFFF DUP3 PUSH2 0xE81 JUMP JUMPDEST PUSH2 0xEC6 DUP7 DUP4 PUSH2 0xE81 JUMP JUMPDEST SWAP6 POP DUP1 NOT DUP5 AND SWAP4 POP DUP1 DUP7 AND DUP5 OR SWAP3 POP POP POP SWAP4 SWAP3 POP POP POP JUMP JUMPDEST PUSH0 DUP2 SWAP1 POP SWAP2 SWAP1 POP JUMP JUMPDEST PUSH0 PUSH2 0xF01 PUSH2 0xEFC PUSH2 0xEF7 DUP5 PUSH2 0x9B8 JUMP JUMPDEST PUSH2 0xEDE JUMP JUMPDEST PUSH2 0x9B8 JUMP JUMPDEST SWAP1 POP SWAP2 SWAP1 POP JUMP JUMPDEST PUSH0 DUP2 SWAP1 POP SWAP2 SWAP1 POP JUMP JUMPDEST PUSH2 0xF1A DUP4 PUSH2 0xEE7 JUMP JUMPDEST PUSH2 0xF2E PUSH2 0xF26 DUP3 PUSH2 0xF08 JUMP JUMPDEST DUP5 DUP5 SLOAD PUSH2 0xE8D JUMP JUMPDEST DUP3 SSTORE POP POP POP POP JUMP JUMPDEST PUSH0 SWAP1 JUMP JUMPDEST PUSH2 0xF42 PUSH2 0xF36 JUMP JUMPDEST PUSH2 0xF4D DUP2 DUP5 DUP5 PUSH2 0xF11 JUMP JUMPDEST POP POP POP JUMP JUMPDEST JUMPDEST DUP2 DUP2 LT ISZERO PUSH2 0xF70 JUMPI PUSH2 0xF65 PUSH0 DUP3 PUSH2 0xF3A JUMP JUMPDEST PUSH1 0x1 DUP2 ADD SWAP1 POP PUSH2 0xF53 JUMP JUMPDEST POP POP JUMP JUMPDEST PUSH1 0x1F DUP3 GT ISZERO PUSH2 0xFB5 JUMPI PUSH2 0xF86 DUP2 PUSH2 0xE60 JUMP JUMPDEST PUSH2 0xF8F DUP5 PUSH2 0xE72 JUMP JUMPDEST DUP2 ADD PUSH1 0x20 DUP6 LT ISZERO PUSH2 0xF9E JUMPI DUP2 SWAP1 POP JUMPDEST PUSH2 0xFB2 PUSH2 0xFAA DUP6 PUSH2 0xE72 JUMP JUMPDEST DUP4 ADD DUP3 PUSH2 0xF52 JUMP JUMPDEST POP POP JUMPDEST POP POP POP JUMP JUMPDEST PUSH0 DUP3 DUP3 SHR SWAP1 POP SWAP3 SWAP2 POP POP JUMP JUMPDEST PUSH0 PUSH2 0xFD5 PUSH0 NOT DUP5 PUSH1 0x8 MUL PUSH2 0xFBA JUMP JUMPDEST NOT DUP1 DUP4 AND SWAP2 POP POP SWAP3 SWAP2 POP POP JUMP JUMPDEST PUSH0 PUSH2 0xFED DUP4 DUP4 PUSH2 0xFC6 JUMP JUMPDEST SWAP2 POP DUP3 PUSH1 0x2 MUL DUP3 OR SWAP1 POP SWAP3 SWAP2 POP POP JUMP JUMPDEST PUSH2 0x1006 DUP3 PUSH2 0x93E JUMP JUMPDEST PUSH8 0xFFFFFFFFFFFFFFFF DUP2 GT ISZERO PUSH2 0x101F JUMPI PUSH2 0x101E PUSH2 0x744 JUMP JUMPDEST JUMPDEST PUSH2 0x1029 DUP3 SLOAD PUSH2 0xD32 JUMP JUMPDEST PUSH2 0x1034 DUP3 DUP3 DUP6 PUSH2 0xF74 JUMP JUMPDEST PUSH0 PUSH1 0x20 SWAP1 POP PUSH1 0x1F DUP4 GT PUSH1 0x1 DUP2 EQ PUSH2 0x1065 JUMPI PUSH0 DUP5 ISZERO PUSH2 0x1053 JUMPI DUP3 DUP8 ADD MLOAD SWAP1 POP JUMPDEST PUSH2 0x105D DUP6 DUP3 PUSH2 0xFE2 JUMP JUMPDEST DUP7 SSTORE POP PUSH2 0x10C4 JUMP JUMPDEST PUSH1 0x1F NOT DUP5 AND PUSH2 0x1073 DUP7 PUSH2 0xE60 JUMP JUMPDEST PUSH0 JUMPDEST DUP3 DUP2 LT ISZERO PUSH2 0x109A JUMPI DUP5 DUP10 ADD MLOAD DUP3 SSTORE PUSH1 0x1 DUP3 ADD SWAP2 POP PUSH1 0x20 DUP6 ADD SWAP5 POP PUSH1 0x20 DUP2 ADD SWAP1 POP PUSH2 0x1075 JUMP JUMPDEST DUP7 DUP4 LT ISZERO PUSH2 0x10B7 JUMPI DUP5 DUP10 ADD MLOAD PUSH2 0x10B3 PUSH1 0x1F DUP10 AND DUP3 PUSH2 0xFC6 JUMP JUMPDEST DUP4 SSTORE POP JUMPDEST PUSH1 0x1 PUSH1 0x2 DUP9 MUL ADD DUP9 SSTORE POP POP POP JUMPDEST POP POP POP POP POP POP JUMP JUMPDEST PUSH0 PUSH1 0x40 DUP3 ADD SWAP1 POP DUP2 DUP2 SUB PUSH0 DUP4 ADD MSTORE PUSH2 0x10E4 DUP2 DUP6 PUSH2 0x980 JUMP JUMPDEST SWAP1 POP DUP2 DUP2 SUB PUSH1 0x20 DUP4 ADD MSTORE PUSH2 0x10F8 DUP2 DUP5 PUSH2 0x980 JUMP JUMPDEST SWAP1 POP SWAP4 SWAP3 POP POP POP JUMP INVALID LOG2 PUSH5 0x6970667358 0x22 SLT KECCAK256 PUSH8 0x188EC0C92E63596 LOG1 0xE8 0xF9 RETURN LOG4 MLOAD BLOCKHASH MOD BLOCKHASH 0x27 0xF8 0xF9 0xEF 0xD4 CODESIZE 0x5D 0xD7 PUSH2 0xBCE 0xCA 0x2A JUMPI PUSH5 0x736F6C6343 STOP ADDMOD AND STOP CALLER "
				},
				"gasEstimates": {
					"creation": {
						"codeDepositCost": "881400",
						"executionCost": "25179",
						"totalCost": "906579"
					},
					"external": {
						"admin()": "2549",
						"getPassport(string)": "infinite",
						"issuePassport(string,string,string,uint256,uint256,uint256,bool)": "infinite",
						"updatePassportStatus(string,bool)": "infinite"
					}
				},
				"methodIdentifiers": {
					"admin()": "f851a440",
					"getPassport(string)": "904a6751",
					"issuePassport(string,string,string,uint256,uint256,uint256,bool)": "9940f3fc",
					"updatePassportStatus(string,bool)": "7e1593c0"
				}
			},
			"storageLayout": {
				"storage": [
					{
						"astId": 3,
						"contract": "contracts/BlockchainPassport.sol:BlockchainPassport",
						"label": "admin",
						"offset": 0,
						"slot": "0",
						"type": "t_address"
					},
					{
						"astId": 21,
						"contract": "contracts/BlockchainPassport.sol:BlockchainPassport",
						"label": "passports",
						"offset": 0,
						"slot": "1",
						"type": "t_mapping(t_string_memory_ptr,t_struct(PassportInfo)16_storage)"
					}
				],
				"types": {
					"t_address": {
						"encoding": "inplace",
						"label": "address",
						"numberOfBytes": "20"
					},
					"t_bool": {
						"encoding": "inplace",
						"label": "bool",
						"numberOfBytes": "1"
					},
					"t_mapping(t_string_memory_ptr,t_struct(PassportInfo)16_storage)": {
						"encoding": "mapping",
						"key": "t_string_memory_ptr",
						"label": "mapping(string => struct BlockchainPassport.PassportInfo)",
						"numberOfBytes": "32",
						"value": "t_struct(PassportInfo)16_storage"
					},
					"t_string_memory_ptr": {
						"encoding": "bytes",
						"label": "string",
						"numberOfBytes": "32"
					},
					"t_string_storage": {
						"encoding": "bytes",
						"label": "string",
						"numberOfBytes": "32"
					},
					"t_struct(PassportInfo)16_storage": {
						"encoding": "inplace",
						"label": "struct BlockchainPassport.PassportInfo",
						"members": [
							{
								"astId": 5,
								"contract": "contracts/BlockchainPassport.sol:BlockchainPassport",
								"label": "holderName",
								"offset": 0,
								"slot": "0",
								"type": "t_string_storage"
							},
							{
								"astId": 7,
								"contract": "contracts/BlockchainPassport.sol:BlockchainPassport",
								"label": "nationality",
								"offset": 0,
								"slot": "1",
								"type": "t_string_storage"
							},
							{
								"astId": 9,
								"contract": "contracts/BlockchainPassport.sol:BlockchainPassport",
								"label": "birthDate",
								"offset": 0,
								"slot": "2",
								"type": "t_uint256"
							},
							{
								"astId": 11,
								"contract": "contracts/BlockchainPassport.sol:BlockchainPassport",
								"label": "issueDate",
								"offset": 0,
								"slot": "3",
								"type": "t_uint256"
							},
							{
								"astId": 13,
								"contract": "contracts/BlockchainPassport.sol:BlockchainPassport",
								"label": "expiryDate",
								"offset": 0,
								"slot": "4",
								"type": "t_uint256"
							},
							{
								"astId": 15,
								"contract": "contracts/BlockchainPassport.sol:BlockchainPassport",
								"label": "isValid",
								"offset": 0,
								"slot": "5",
								"type": "t_bool"
							}
						],
						"numberOfBytes": "192"
					},
					"t_uint256": {
						"encoding": "inplace",
						"label": "uint256",
						"numberOfBytes": "32"
					}
				}
			},
			"userdoc": {
				"kind": "user",
				"methods": {},
				"version": 1
			}
		}
	}
}